{
  "_format": "hh-sol-artifact-1",
  "contractName": "Wiz",
  "sourceName": "contracts/Wiz.sol",
  "abi": [
    {
      "inputs": [
        {
          "internalType": "address",
          "name": "_proxyRegistryAddress",
          "type": "address"
        }
      ],
      "stateMutability": "nonpayable",
      "type": "constructor"
    },
    {
      "anonymous": false,
      "inputs": [
        {
          "indexed": true,
          "internalType": "address",
          "name": "owner",
          "type": "address"
        },
        {
          "indexed": true,
          "internalType": "address",
          "name": "approved",
          "type": "address"
        },
        {
          "indexed": true,
          "internalType": "uint256",
          "name": "tokenId",
          "type": "uint256"
        }
      ],
      "name": "Approval",
      "type": "event"
    },
    {
      "anonymous": false,
      "inputs": [
        {
          "indexed": true,
          "internalType": "address",
          "name": "owner",
          "type": "address"
        },
        {
          "indexed": true,
          "internalType": "address",
          "name": "operator",
          "type": "address"
        },
        {
          "indexed": false,
          "internalType": "bool",
          "name": "approved",
          "type": "bool"
        }
      ],
      "name": "ApprovalForAll",
      "type": "event"
    },
    {
      "anonymous": false,
      "inputs": [
        {
          "indexed": false,
          "internalType": "address",
          "name": "userAddress",
          "type": "address"
        },
        {
          "indexed": false,
          "internalType": "address payable",
          "name": "relayerAddress",
          "type": "address"
        },
        {
          "indexed": false,
          "internalType": "bytes",
          "name": "functionSignature",
          "type": "bytes"
        }
      ],
      "name": "MetaTransactionExecuted",
      "type": "event"
    },
    {
      "anonymous": false,
      "inputs": [
        {
          "indexed": true,
          "internalType": "address",
          "name": "previousOwner",
          "type": "address"
        },
        {
          "indexed": true,
          "internalType": "address",
          "name": "newOwner",
          "type": "address"
        }
      ],
      "name": "OwnershipTransferred",
      "type": "event"
    },
    {
      "anonymous": false,
      "inputs": [
        {
          "indexed": true,
          "internalType": "address",
          "name": "from",
          "type": "address"
        },
        {
          "indexed": true,
          "internalType": "address",
          "name": "to",
          "type": "address"
        },
        {
          "indexed": true,
          "internalType": "uint256",
          "name": "tokenId",
          "type": "uint256"
        }
      ],
      "name": "Transfer",
      "type": "event"
    },
    {
      "inputs": [],
      "name": "ERC712_VERSION",
      "outputs": [
        {
          "internalType": "string",
          "name": "",
          "type": "string"
        }
      ],
      "stateMutability": "view",
      "type": "function"
    },
    {
      "inputs": [
        {
          "internalType": "address",
          "name": "to",
          "type": "address"
        },
        {
          "internalType": "uint256",
          "name": "tokenId",
          "type": "uint256"
        }
      ],
      "name": "approve",
      "outputs": [],
      "stateMutability": "nonpayable",
      "type": "function"
    },
    {
      "inputs": [
        {
          "internalType": "address",
          "name": "owner",
          "type": "address"
        }
      ],
      "name": "balanceOf",
      "outputs": [
        {
          "internalType": "uint256",
          "name": "",
          "type": "uint256"
        }
      ],
      "stateMutability": "view",
      "type": "function"
    },
    {
      "inputs": [],
      "name": "baseExtension",
      "outputs": [
        {
          "internalType": "string",
          "name": "",
          "type": "string"
        }
      ],
      "stateMutability": "view",
      "type": "function"
    },
    {
      "inputs": [],
      "name": "baseTokenURI",
      "outputs": [
        {
          "internalType": "string",
          "name": "",
          "type": "string"
        }
      ],
      "stateMutability": "pure",
      "type": "function"
    },
    {
      "inputs": [],
      "name": "contractURI",
      "outputs": [
        {
          "internalType": "string",
          "name": "",
          "type": "string"
        }
      ],
      "stateMutability": "pure",
      "type": "function"
    },
    {
      "inputs": [
        {
          "internalType": "address",
          "name": "userAddress",
          "type": "address"
        },
        {
          "internalType": "bytes",
          "name": "functionSignature",
          "type": "bytes"
        },
        {
          "internalType": "bytes32",
          "name": "sigR",
          "type": "bytes32"
        },
        {
          "internalType": "bytes32",
          "name": "sigS",
          "type": "bytes32"
        },
        {
          "internalType": "uint8",
          "name": "sigV",
          "type": "uint8"
        }
      ],
      "name": "executeMetaTransaction",
      "outputs": [
        {
          "internalType": "bytes",
          "name": "",
          "type": "bytes"
        }
      ],
      "stateMutability": "payable",
      "type": "function"
    },
    {
      "inputs": [
        {
          "internalType": "uint256",
          "name": "tokenId",
          "type": "uint256"
        }
      ],
      "name": "getApproved",
      "outputs": [
        {
          "internalType": "address",
          "name": "",
          "type": "address"
        }
      ],
      "stateMutability": "view",
      "type": "function"
    },
    {
      "inputs": [],
      "name": "getChainId",
      "outputs": [
        {
          "internalType": "uint256",
          "name": "",
          "type": "uint256"
        }
      ],
      "stateMutability": "view",
      "type": "function"
    },
    {
      "inputs": [],
      "name": "getDomainSeperator",
      "outputs": [
        {
          "internalType": "bytes32",
          "name": "",
          "type": "bytes32"
        }
      ],
      "stateMutability": "view",
      "type": "function"
    },
    {
      "inputs": [
        {
          "internalType": "address",
          "name": "user",
          "type": "address"
        }
      ],
      "name": "getNonce",
      "outputs": [
        {
          "internalType": "uint256",
          "name": "nonce",
          "type": "uint256"
        }
      ],
      "stateMutability": "view",
      "type": "function"
    },
    {
      "inputs": [
        {
          "internalType": "address",
          "name": "owner",
          "type": "address"
        },
        {
          "internalType": "address",
          "name": "operator",
          "type": "address"
        }
      ],
      "name": "isApprovedForAll",
      "outputs": [
        {
          "internalType": "bool",
          "name": "",
          "type": "bool"
        }
      ],
      "stateMutability": "view",
      "type": "function"
    },
    {
      "inputs": [
        {
          "internalType": "address",
          "name": "_to",
          "type": "address"
        }
      ],
      "name": "mintTo",
      "outputs": [],
      "stateMutability": "nonpayable",
      "type": "function"
    },
    {
      "inputs": [],
      "name": "name",
      "outputs": [
        {
          "internalType": "string",
          "name": "",
          "type": "string"
        }
      ],
      "stateMutability": "view",
      "type": "function"
    },
    {
      "inputs": [],
      "name": "owner",
      "outputs": [
        {
          "internalType": "address",
          "name": "",
          "type": "address"
        }
      ],
      "stateMutability": "view",
      "type": "function"
    },
    {
      "inputs": [
        {
          "internalType": "uint256",
          "name": "tokenId",
          "type": "uint256"
        }
      ],
      "name": "ownerOf",
      "outputs": [
        {
          "internalType": "address",
          "name": "",
          "type": "address"
        }
      ],
      "stateMutability": "view",
      "type": "function"
    },
    {
      "inputs": [],
      "name": "renounceOwnership",
      "outputs": [],
      "stateMutability": "nonpayable",
      "type": "function"
    },
    {
      "inputs": [
        {
          "internalType": "address",
          "name": "from",
          "type": "address"
        },
        {
          "internalType": "address",
          "name": "to",
          "type": "address"
        },
        {
          "internalType": "uint256",
          "name": "tokenId",
          "type": "uint256"
        }
      ],
      "name": "safeTransferFrom",
      "outputs": [],
      "stateMutability": "nonpayable",
      "type": "function"
    },
    {
      "inputs": [
        {
          "internalType": "address",
          "name": "from",
          "type": "address"
        },
        {
          "internalType": "address",
          "name": "to",
          "type": "address"
        },
        {
          "internalType": "uint256",
          "name": "tokenId",
          "type": "uint256"
        },
        {
          "internalType": "bytes",
          "name": "_data",
          "type": "bytes"
        }
      ],
      "name": "safeTransferFrom",
      "outputs": [],
      "stateMutability": "nonpayable",
      "type": "function"
    },
    {
      "inputs": [
        {
          "internalType": "address",
          "name": "operator",
          "type": "address"
        },
        {
          "internalType": "bool",
          "name": "approved",
          "type": "bool"
        }
      ],
      "name": "setApprovalForAll",
      "outputs": [],
      "stateMutability": "nonpayable",
      "type": "function"
    },
    {
      "inputs": [
        {
          "internalType": "bytes4",
          "name": "interfaceId",
          "type": "bytes4"
        }
      ],
      "name": "supportsInterface",
      "outputs": [
        {
          "internalType": "bool",
          "name": "",
          "type": "bool"
        }
      ],
      "stateMutability": "view",
      "type": "function"
    },
    {
      "inputs": [],
      "name": "symbol",
      "outputs": [
        {
          "internalType": "string",
          "name": "",
          "type": "string"
        }
      ],
      "stateMutability": "view",
      "type": "function"
    },
    {
      "inputs": [
        {
          "internalType": "uint256",
          "name": "_tokenId",
          "type": "uint256"
        }
      ],
      "name": "tokenURI",
      "outputs": [
        {
          "internalType": "string",
          "name": "",
          "type": "string"
        }
      ],
      "stateMutability": "pure",
      "type": "function"
    },
    {
      "inputs": [],
      "name": "totalSupply",
      "outputs": [
        {
          "internalType": "uint256",
          "name": "",
          "type": "uint256"
        }
      ],
      "stateMutability": "view",
      "type": "function"
    },
    {
      "inputs": [
        {
          "internalType": "address",
          "name": "from",
          "type": "address"
        },
        {
          "internalType": "address",
          "name": "to",
          "type": "address"
        },
        {
          "internalType": "uint256",
          "name": "tokenId",
          "type": "uint256"
        }
      ],
      "name": "transferFrom",
      "outputs": [],
      "stateMutability": "nonpayable",
      "type": "function"
    },
    {
      "inputs": [
        {
          "internalType": "address",
          "name": "newOwner",
          "type": "address"
        }
      ],
      "name": "transferOwnership",
      "outputs": [],
      "stateMutability": "nonpayable",
      "type": "function"
    }
  ],
  "bytecode": "0x6006805460ff1916905560c06040526005608081905264173539b7b760d91b60a09081526200003291600c91906200030d565b503480156200004057600080fd5b50604051620023d3380380620023d38339810160408190526200006391620003b3565b604051806040016040528060038152602001622bb4bd60e91b815250604051806040016040528060038152602001622ba4ad60e91b8152508282828160009080519060200190620000b69291906200030d565b508051620000cc9060019060208401906200030d565b505050620000e9620000e36200013160201b60201c565b6200014d565b600b80546001600160a01b0319166001600160a01b0383161790556200011c600a6200019f602090811b62000e6117901c565b6200012783620001a8565b5050505062000422565b6000620001486200020c60201b62000e6a1760201c565b905090565b600980546001600160a01b038381166001600160a01b0319831681179093556040519116919082907f8be0079c531659141344cd1fd0a4f28419497f9722a3daafe3b4186f6b6457e090600090a35050565b80546001019055565b60065460ff1615620001f15760405162461bcd60e51b815260206004820152600e60248201526d185b1c9958591e481a5b9a5d195960921b604482015260640160405180910390fd5b620001fc816200026b565b506006805460ff19166001179055565b6000333014156200026557600080368080601f0160208091040260200160405190810160405280939291908181526020018383808284376000920191909152505050503601516001600160a01b03169150620002689050565b50335b90565b6040518060800160405280604f815260200162002384604f9139805160209182012082519282019290922060408051808201825260018152603160f81b90840152805180840194909452838101919091527fc89efdaa54c0f20c7adf612882df0950f5a951637e0307cdcb4c672f298b8bc660608401523060808401524660a0808501919091528151808503909101815260c090930190528151910120600755565b8280546200031b90620003e5565b90600052602060002090601f0160209004810192826200033f57600085556200038a565b82601f106200035a57805160ff19168380011785556200038a565b828001600101855582156200038a579182015b828111156200038a5782518255916020019190600101906200036d565b50620003989291506200039c565b5090565b5b808211156200039857600081556001016200039d565b600060208284031215620003c657600080fd5b81516001600160a01b0381168114620003de57600080fd5b9392505050565b600181811c90821680620003fa57607f821691505b602082108114156200041c57634e487b7160e01b600052602260045260246000fd5b50919050565b611f5280620004326000396000f3fe6080604052600436106101815760003560e01c806370a08231116100d1578063b88d4fde1161008a578063d547cfb711610064578063d547cfb714610455578063e8a3d4851461046a578063e985e9c51461048b578063f2fde38b146104ab57600080fd5b8063b88d4fde14610400578063c668286214610420578063c87b56dd1461043557600080fd5b806370a0823114610358578063715018a614610378578063755edd171461038d5780638da5cb5b146103ad57806395d89b41146103cb578063a22cb465146103e057600080fd5b806318160ddd1161013e5780632d0335ab116101185780632d0335ab146102cf5780633408e4701461030557806342842e0e146103185780636352211e1461033857600080fd5b806318160ddd1461027757806320379ee51461029a57806323b872dd146102af57600080fd5b806301ffc9a71461018657806306fdde03146101bb578063081812fc146101dd578063095ea7b3146102155780630c53c51c146102375780630f7e59701461024a575b600080fd5b34801561019257600080fd5b506101a66101a1366004611865565b6104cb565b60405190151581526020015b60405180910390f35b3480156101c757600080fd5b506101d061051d565b6040516101b291906118da565b3480156101e957600080fd5b506101fd6101f83660046118ed565b6105af565b6040516001600160a01b0390911681526020016101b2565b34801561022157600080fd5b5061023561023036600461191b565b610649565b005b6101d06102453660046119ea565b610771565b34801561025657600080fd5b506101d0604051806040016040528060018152602001603160f81b81525081565b34801561028357600080fd5b5061028c61095b565b6040519081526020016101b2565b3480156102a657600080fd5b5060075461028c565b3480156102bb57600080fd5b506102356102ca366004611a68565b610977565b3480156102db57600080fd5b5061028c6102ea366004611aa9565b6001600160a01b031660009081526008602052604090205490565b34801561031157600080fd5b504661028c565b34801561032457600080fd5b50610235610333366004611a68565b6109af565b34801561034457600080fd5b506101fd6103533660046118ed565b6109ca565b34801561036457600080fd5b5061028c610373366004611aa9565b610a41565b34801561038457600080fd5b50610235610ac8565b34801561039957600080fd5b506102356103a8366004611aa9565b610b1d565b3480156103b957600080fd5b506009546001600160a01b03166101fd565b3480156103d757600080fd5b506101d0610b8f565b3480156103ec57600080fd5b506102356103fb366004611ac6565b610b9e565b34801561040c57600080fd5b5061023561041b366004611b04565b610bb0565b34801561042c57600080fd5b506101d0610bef565b34801561044157600080fd5b506101d06104503660046118ed565b610c7d565b34801561046157600080fd5b506101d0610cb7565b34801561047657600080fd5b506040805160208101909152600081526101d0565b34801561049757600080fd5b506101a66104a6366004611b70565b610cd7565b3480156104b757600080fd5b506102356104c6366004611aa9565b610da7565b60006001600160e01b031982166380ac58cd60e01b14806104fc57506001600160e01b03198216635b5e139f60e01b145b8061051757506301ffc9a760e01b6001600160e01b03198316145b92915050565b60606000805461052c90611b9e565b80601f016020809104026020016040519081016040528092919081815260200182805461055890611b9e565b80156105a55780601f1061057a576101008083540402835291602001916105a5565b820191906000526020600020905b81548152906001019060200180831161058857829003601f168201915b5050505050905090565b6000818152600260205260408120546001600160a01b031661062d5760405162461bcd60e51b815260206004820152602c60248201527f4552433732313a20617070726f76656420717565727920666f72206e6f6e657860448201526b34b9ba32b73a103a37b5b2b760a11b60648201526084015b60405180910390fd5b506000908152600460205260409020546001600160a01b031690565b6000610654826109ca565b9050806001600160a01b0316836001600160a01b031614156106c25760405162461bcd60e51b815260206004820152602160248201527f4552433732313a20617070726f76616c20746f2063757272656e74206f776e656044820152603960f91b6064820152608401610624565b806001600160a01b03166106d4610ec7565b6001600160a01b031614806106f057506106f0816104a6610ec7565b6107625760405162461bcd60e51b815260206004820152603860248201527f4552433732313a20617070726f76652063616c6c6572206973206e6f74206f7760448201527f6e6572206e6f7220617070726f76656420666f7220616c6c00000000000000006064820152608401610624565b61076c8383610ed1565b505050565b60408051606081810183526001600160a01b038816600081815260086020908152908590205484528301529181018690526107af8782878787610f3f565b6108055760405162461bcd60e51b815260206004820152602160248201527f5369676e657220616e64207369676e617475726520646f206e6f74206d6174636044820152600d60fb1b6064820152608401610624565b6001600160a01b03871660009081526008602052604090205461082990600161102f565b6001600160a01b0388166000908152600860205260409081902091909155517f5845892132946850460bff5a0083f71031bc5bf9aadcd40f1de79423eac9b10b9061087990899033908a90611bd9565b60405180910390a1600080306001600160a01b0316888a6040516020016108a1929190611c0e565b60408051601f19818403018152908290526108bb91611c45565b6000604051808303816000865af19150503d80600081146108f8576040519150601f19603f3d011682016040523d82523d6000602084013e6108fd565b606091505b50915091508161094f5760405162461bcd60e51b815260206004820152601c60248201527f46756e6374696f6e2063616c6c206e6f74207375636365737366756c000000006044820152606401610624565b98975050505050505050565b60006001610968600a5490565b6109729190611c77565b905090565b610988610982610ec7565b82611042565b6109a45760405162461bcd60e51b815260040161062490611c8e565b61076c838383611111565b61076c83838360405180602001604052806000815250610bb0565b6000818152600260205260408120546001600160a01b0316806105175760405162461bcd60e51b815260206004820152602960248201527f4552433732313a206f776e657220717565727920666f72206e6f6e657869737460448201526832b73a103a37b5b2b760b91b6064820152608401610624565b60006001600160a01b038216610aac5760405162461bcd60e51b815260206004820152602a60248201527f4552433732313a2062616c616e636520717565727920666f7220746865207a65604482015269726f206164647265737360b01b6064820152608401610624565b506001600160a01b031660009081526003602052604090205490565b610ad0610ec7565b6001600160a01b0316610aeb6009546001600160a01b031690565b6001600160a01b031614610b115760405162461bcd60e51b815260040161062490611cdf565b610b1b60006112ad565b565b610b25610ec7565b6001600160a01b0316610b406009546001600160a01b031690565b6001600160a01b031614610b665760405162461bcd60e51b815260040161062490611cdf565b6000610b71600a5490565b9050610b81600a80546001019055565b610b8b82826112ff565b5050565b60606001805461052c90611b9e565b610b8b610ba9610ec7565b8383611319565b610bc1610bbb610ec7565b83611042565b610bdd5760405162461bcd60e51b815260040161062490611c8e565b610be9848484846113e8565b50505050565b600c8054610bfc90611b9e565b80601f0160208091040260200160405190810160405280929190818152602001828054610c2890611b9e565b8015610c755780601f10610c4a57610100808354040283529160200191610c75565b820191906000526020600020905b815481529060010190602001808311610c5857829003601f168201915b505050505081565b6060610c87610cb7565b610c908361141b565b604051602001610ca1929190611d14565b6040516020818303038152906040529050919050565b6060604051806060016040528060368152602001611ee760369139905090565b600b5460405163c455279160e01b81526001600160a01b03848116600483015260009281169190841690829063c45527919060240160206040518083038186803b158015610d2457600080fd5b505afa158015610d38573d6000803e3d6000fd5b505050506040513d601f19601f82011682018060405250810190610d5c9190611d53565b6001600160a01b03161415610d75576001915050610517565b6001600160a01b0380851660009081526005602090815260408083209387168352929052205460ff165b949350505050565b610daf610ec7565b6001600160a01b0316610dca6009546001600160a01b031690565b6001600160a01b031614610df05760405162461bcd60e51b815260040161062490611cdf565b6001600160a01b038116610e555760405162461bcd60e51b815260206004820152602660248201527f4f776e61626c653a206e6577206f776e657220697320746865207a65726f206160448201526564647265737360d01b6064820152608401610624565b610e5e816112ad565b50565b80546001019055565b600033301415610ec157600080368080601f0160208091040260200160405190810160405280939291908181526020018383808284376000920191909152505050503601516001600160a01b03169150610ec49050565b50335b90565b6000610972610e6a565b600081815260046020526040902080546001600160a01b0319166001600160a01b0384169081179091558190610f06826109ca565b6001600160a01b03167f8c5be1e5ebec7d5bd14f71427d1e84f3dd0314c0f7b2291e5b200ac8c7c3b92560405160405180910390a45050565b60006001600160a01b038616610fa55760405162461bcd60e51b815260206004820152602560248201527f4e61746976654d6574615472616e73616374696f6e3a20494e56414c49445f5360448201526424a3a722a960d91b6064820152608401610624565b6001610fb8610fb387611519565b611596565b6040805160008152602081018083529290925260ff851690820152606081018690526080810185905260a0016020604051602081039080840390855afa158015611006573d6000803e3d6000fd5b505050602060405103516001600160a01b0316866001600160a01b031614905095945050505050565b600061103b8284611d70565b9392505050565b6000818152600260205260408120546001600160a01b03166110bb5760405162461bcd60e51b815260206004820152602c60248201527f4552433732313a206f70657261746f7220717565727920666f72206e6f6e657860448201526b34b9ba32b73a103a37b5b2b760a11b6064820152608401610624565b60006110c6836109ca565b9050806001600160a01b0316846001600160a01b031614806111015750836001600160a01b03166110f6846105af565b6001600160a01b0316145b80610d9f5750610d9f8185610cd7565b826001600160a01b0316611124826109ca565b6001600160a01b0316146111885760405162461bcd60e51b815260206004820152602560248201527f4552433732313a207472616e736665722066726f6d20696e636f72726563742060448201526437bbb732b960d91b6064820152608401610624565b6001600160a01b0382166111ea5760405162461bcd60e51b8152602060048201526024808201527f4552433732313a207472616e7366657220746f20746865207a65726f206164646044820152637265737360e01b6064820152608401610624565b6111f5600082610ed1565b6001600160a01b038316600090815260036020526040812080546001929061121e908490611c77565b90915550506001600160a01b038216600090815260036020526040812080546001929061124c908490611d70565b909155505060008181526002602052604080822080546001600160a01b0319166001600160a01b0386811691821790925591518493918716917fddf252ad1be2c89b69c2b068fc378daa952ba7f163c4a11628f55a4df523b3ef91a4505050565b600980546001600160a01b038381166001600160a01b0319831681179093556040519116919082907f8be0079c531659141344cd1fd0a4f28419497f9722a3daafe3b4186f6b6457e090600090a35050565b610b8b8282604051806020016040528060008152506115c6565b816001600160a01b0316836001600160a01b0316141561137b5760405162461bcd60e51b815260206004820152601960248201527f4552433732313a20617070726f766520746f2063616c6c6572000000000000006044820152606401610624565b6001600160a01b03838116600081815260056020908152604080832094871680845294825291829020805460ff191686151590811790915591519182527f17307eab39ab6107e8899845ad3d59bd9653f200f220920489ca2b5937696c31910160405180910390a3505050565b6113f3848484611111565b6113ff848484846115f9565b610be95760405162461bcd60e51b815260040161062490611d88565b60608161143f5750506040805180820190915260018152600360fc1b602082015290565b8160005b8115611469578061145381611dda565b91506114629050600a83611e0b565b9150611443565b60008167ffffffffffffffff81111561148457611484611947565b6040519080825280601f01601f1916602001820160405280156114ae576020820181803683370190505b5090505b8415610d9f576114c3600183611c77565b91506114d0600a86611e1f565b6114db906030611d70565b60f81b8183815181106114f0576114f0611e33565b60200101906001600160f81b031916908160001a905350611512600a86611e0b565b94506114b2565b6000604051806080016040528060438152602001611ea46043913980516020918201208351848301516040808701518051908601209051611579950193845260208401929092526001600160a01b03166040830152606082015260800190565b604051602081830303815290604052805190602001209050919050565b60006115a160075490565b60405161190160f01b6020820152602281019190915260428101839052606201611579565b6115d0838361170d565b6115dd60008484846115f9565b61076c5760405162461bcd60e51b815260040161062490611d88565b60006001600160a01b0384163b1561170257836001600160a01b031663150b7a02611622610ec7565b8786866040518563ffffffff1660e01b81526004016116449493929190611e49565b602060405180830381600087803b15801561165e57600080fd5b505af192505050801561168e575060408051601f3d908101601f1916820190925261168b91810190611e86565b60015b6116e8573d8080156116bc576040519150601f19603f3d011682016040523d82523d6000602084013e6116c1565b606091505b5080516116e05760405162461bcd60e51b815260040161062490611d88565b805181602001fd5b6001600160e01b031916630a85bd0160e11b149050610d9f565b506001949350505050565b6001600160a01b0382166117635760405162461bcd60e51b815260206004820181905260248201527f4552433732313a206d696e7420746f20746865207a65726f20616464726573736044820152606401610624565b6000818152600260205260409020546001600160a01b0316156117c85760405162461bcd60e51b815260206004820152601c60248201527f4552433732313a20746f6b656e20616c7265616479206d696e746564000000006044820152606401610624565b6001600160a01b03821660009081526003602052604081208054600192906117f1908490611d70565b909155505060008181526002602052604080822080546001600160a01b0319166001600160a01b03861690811790915590518392907fddf252ad1be2c89b69c2b068fc378daa952ba7f163c4a11628f55a4df523b3ef908290a45050565b6001600160e01b031981168114610e5e57600080fd5b60006020828403121561187757600080fd5b813561103b8161184f565b60005b8381101561189d578181015183820152602001611885565b83811115610be95750506000910152565b600081518084526118c6816020860160208601611882565b601f01601f19169290920160200192915050565b60208152600061103b60208301846118ae565b6000602082840312156118ff57600080fd5b5035919050565b6001600160a01b0381168114610e5e57600080fd5b6000806040838503121561192e57600080fd5b823561193981611906565b946020939093013593505050565b634e487b7160e01b600052604160045260246000fd5b600082601f83011261196e57600080fd5b813567ffffffffffffffff8082111561198957611989611947565b604051601f8301601f19908116603f011681019082821181831017156119b1576119b1611947565b816040528381528660208588010111156119ca57600080fd5b836020870160208301376000602085830101528094505050505092915050565b600080600080600060a08688031215611a0257600080fd5b8535611a0d81611906565b9450602086013567ffffffffffffffff811115611a2957600080fd5b611a358882890161195d565b9450506040860135925060608601359150608086013560ff81168114611a5a57600080fd5b809150509295509295909350565b600080600060608486031215611a7d57600080fd5b8335611a8881611906565b92506020840135611a9881611906565b929592945050506040919091013590565b600060208284031215611abb57600080fd5b813561103b81611906565b60008060408385031215611ad957600080fd5b8235611ae481611906565b915060208301358015158114611af957600080fd5b809150509250929050565b60008060008060808587031215611b1a57600080fd5b8435611b2581611906565b93506020850135611b3581611906565b925060408501359150606085013567ffffffffffffffff811115611b5857600080fd5b611b648782880161195d565b91505092959194509250565b60008060408385031215611b8357600080fd5b8235611b8e81611906565b91506020830135611af981611906565b600181811c90821680611bb257607f821691505b60208210811415611bd357634e487b7160e01b600052602260045260246000fd5b50919050565b6001600160a01b03848116825283166020820152606060408201819052600090611c05908301846118ae565b95945050505050565b60008351611c20818460208801611882565b60609390931b6bffffffffffffffffffffffff19169190920190815260140192915050565b60008251611c57818460208701611882565b9190910192915050565b634e487b7160e01b600052601160045260246000fd5b600082821015611c8957611c89611c61565b500390565b60208082526031908201527f4552433732313a207472616e736665722063616c6c6572206973206e6f74206f6040820152701ddb995c881b9bdc88185c1c1c9bdd9959607a1b606082015260800190565b6020808252818101527f4f776e61626c653a2063616c6c6572206973206e6f7420746865206f776e6572604082015260600190565b60008351611d26818460208801611882565b835190830190611d3a818360208801611882565b64173539b7b760d91b9101908152600501949350505050565b600060208284031215611d6557600080fd5b815161103b81611906565b60008219821115611d8357611d83611c61565b500190565b60208082526032908201527f4552433732313a207472616e7366657220746f206e6f6e20455243373231526560408201527131b2b4bb32b91034b6b83632b6b2b73a32b960711b606082015260800190565b6000600019821415611dee57611dee611c61565b5060010190565b634e487b7160e01b600052601260045260246000fd5b600082611e1a57611e1a611df5565b500490565b600082611e2e57611e2e611df5565b500690565b634e487b7160e01b600052603260045260246000fd5b6001600160a01b0385811682528416602082015260408101839052608060608201819052600090611e7c908301846118ae565b9695505050505050565b600060208284031215611e9857600080fd5b815161103b8161184f56fe4d6574615472616e73616374696f6e2875696e74323536206e6f6e63652c616464726573732066726f6d2c62797465732066756e6374696f6e5369676e617475726529697066733a2f2f516d50436b34436f4846636f476a6845476562577357745a793643425a385172347a7875317051767938556874752fa26469706673582212206335029fa0fab1f3916190e1c647df5b3a0f8fed861bb0f2cf4489e1b26f88df64736f6c63430008090033454950373132446f6d61696e28737472696e67206e616d652c737472696e672076657273696f6e2c6164647265737320766572696679696e67436f6e74726163742c627974657333322073616c7429",
  "linkReferences": {},
  "deployedLinkReferences": {}
}