{
  "_format": "hh-sol-artifact-1",
  "contractName": "CryptoWiz_ITMb",
  "sourceName": "contracts/CryptoWiz_ITMb.sol",
  "abi": [
    {
      "inputs": [
        {
          "internalType": "string",
          "name": "uri",
          "type": "string"
        }
      ],
      "stateMutability": "nonpayable",
      "type": "constructor"
    },
    {
      "anonymous": false,
      "inputs": [
        {
          "indexed": true,
          "internalType": "address",
          "name": "account",
          "type": "address"
        },
        {
          "indexed": true,
          "internalType": "address",
          "name": "operator",
          "type": "address"
        },
        {
          "indexed": false,
          "internalType": "bool",
          "name": "approved",
          "type": "bool"
        }
      ],
      "name": "ApprovalForAll",
      "type": "event"
    },
    {
      "anonymous": false,
      "inputs": [
        {
          "indexed": true,
          "internalType": "address",
          "name": "previousOwner",
          "type": "address"
        },
        {
          "indexed": true,
          "internalType": "address",
          "name": "newOwner",
          "type": "address"
        }
      ],
      "name": "OwnershipTransferred",
      "type": "event"
    },
    {
      "anonymous": false,
      "inputs": [
        {
          "indexed": true,
          "internalType": "address",
          "name": "operator",
          "type": "address"
        },
        {
          "indexed": true,
          "internalType": "address",
          "name": "from",
          "type": "address"
        },
        {
          "indexed": true,
          "internalType": "address",
          "name": "to",
          "type": "address"
        },
        {
          "indexed": false,
          "internalType": "uint256[]",
          "name": "ids",
          "type": "uint256[]"
        },
        {
          "indexed": false,
          "internalType": "uint256[]",
          "name": "values",
          "type": "uint256[]"
        }
      ],
      "name": "TransferBatch",
      "type": "event"
    },
    {
      "anonymous": false,
      "inputs": [
        {
          "indexed": true,
          "internalType": "address",
          "name": "operator",
          "type": "address"
        },
        {
          "indexed": true,
          "internalType": "address",
          "name": "from",
          "type": "address"
        },
        {
          "indexed": true,
          "internalType": "address",
          "name": "to",
          "type": "address"
        },
        {
          "indexed": false,
          "internalType": "uint256",
          "name": "id",
          "type": "uint256"
        },
        {
          "indexed": false,
          "internalType": "uint256",
          "name": "value",
          "type": "uint256"
        }
      ],
      "name": "TransferSingle",
      "type": "event"
    },
    {
      "anonymous": false,
      "inputs": [
        {
          "indexed": false,
          "internalType": "string",
          "name": "value",
          "type": "string"
        },
        {
          "indexed": true,
          "internalType": "uint256",
          "name": "id",
          "type": "uint256"
        }
      ],
      "name": "URI",
      "type": "event"
    },
    {
      "inputs": [
        {
          "internalType": "address",
          "name": "_to",
          "type": "address"
        }
      ],
      "name": "MyMint",
      "outputs": [],
      "stateMutability": "payable",
      "type": "function"
    },
    {
      "inputs": [
        {
          "internalType": "address",
          "name": "account",
          "type": "address"
        },
        {
          "internalType": "uint256",
          "name": "id",
          "type": "uint256"
        }
      ],
      "name": "balanceOf",
      "outputs": [
        {
          "internalType": "uint256",
          "name": "",
          "type": "uint256"
        }
      ],
      "stateMutability": "view",
      "type": "function"
    },
    {
      "inputs": [
        {
          "internalType": "address[]",
          "name": "accounts",
          "type": "address[]"
        },
        {
          "internalType": "uint256[]",
          "name": "ids",
          "type": "uint256[]"
        }
      ],
      "name": "balanceOfBatch",
      "outputs": [
        {
          "internalType": "uint256[]",
          "name": "",
          "type": "uint256[]"
        }
      ],
      "stateMutability": "view",
      "type": "function"
    },
    {
      "inputs": [],
      "name": "baseExtension",
      "outputs": [
        {
          "internalType": "string",
          "name": "",
          "type": "string"
        }
      ],
      "stateMutability": "view",
      "type": "function"
    },
    {
      "inputs": [],
      "name": "baseURI",
      "outputs": [
        {
          "internalType": "string",
          "name": "",
          "type": "string"
        }
      ],
      "stateMutability": "view",
      "type": "function"
    },
    {
      "inputs": [
        {
          "internalType": "address",
          "name": "from",
          "type": "address"
        },
        {
          "internalType": "uint256",
          "name": "id",
          "type": "uint256"
        },
        {
          "internalType": "uint256",
          "name": "amount",
          "type": "uint256"
        }
      ],
      "name": "burn",
      "outputs": [],
      "stateMutability": "nonpayable",
      "type": "function"
    },
    {
      "inputs": [
        {
          "internalType": "uint256",
          "name": "_id",
          "type": "uint256"
        }
      ],
      "name": "exists",
      "outputs": [
        {
          "internalType": "bool",
          "name": "",
          "type": "bool"
        }
      ],
      "stateMutability": "view",
      "type": "function"
    },
    {
      "inputs": [
        {
          "internalType": "address",
          "name": "account",
          "type": "address"
        },
        {
          "internalType": "address",
          "name": "operator",
          "type": "address"
        }
      ],
      "name": "isApprovedForAll",
      "outputs": [
        {
          "internalType": "bool",
          "name": "",
          "type": "bool"
        }
      ],
      "stateMutability": "view",
      "type": "function"
    },
    {
      "inputs": [
        {
          "internalType": "address",
          "name": "_to",
          "type": "address"
        },
        {
          "internalType": "uint256",
          "name": "_quantity",
          "type": "uint256"
        },
        {
          "internalType": "string",
          "name": "_hash",
          "type": "string"
        }
      ],
      "name": "mint",
      "outputs": [],
      "stateMutability": "nonpayable",
      "type": "function"
    },
    {
      "inputs": [],
      "name": "name",
      "outputs": [
        {
          "internalType": "string",
          "name": "",
          "type": "string"
        }
      ],
      "stateMutability": "view",
      "type": "function"
    },
    {
      "inputs": [],
      "name": "owner",
      "outputs": [
        {
          "internalType": "address",
          "name": "",
          "type": "address"
        }
      ],
      "stateMutability": "view",
      "type": "function"
    },
    {
      "inputs": [],
      "name": "renounceOwnership",
      "outputs": [],
      "stateMutability": "nonpayable",
      "type": "function"
    },
    {
      "inputs": [
        {
          "internalType": "address",
          "name": "from",
          "type": "address"
        },
        {
          "internalType": "address",
          "name": "to",
          "type": "address"
        },
        {
          "internalType": "uint256[]",
          "name": "ids",
          "type": "uint256[]"
        },
        {
          "internalType": "uint256[]",
          "name": "amounts",
          "type": "uint256[]"
        },
        {
          "internalType": "bytes",
          "name": "data",
          "type": "bytes"
        }
      ],
      "name": "safeBatchTransferFrom",
      "outputs": [],
      "stateMutability": "nonpayable",
      "type": "function"
    },
    {
      "inputs": [
        {
          "internalType": "address",
          "name": "from",
          "type": "address"
        },
        {
          "internalType": "address",
          "name": "to",
          "type": "address"
        },
        {
          "internalType": "uint256",
          "name": "id",
          "type": "uint256"
        },
        {
          "internalType": "uint256",
          "name": "amount",
          "type": "uint256"
        },
        {
          "internalType": "bytes",
          "name": "data",
          "type": "bytes"
        }
      ],
      "name": "safeTransferFrom",
      "outputs": [],
      "stateMutability": "nonpayable",
      "type": "function"
    },
    {
      "inputs": [
        {
          "internalType": "address",
          "name": "operator",
          "type": "address"
        },
        {
          "internalType": "bool",
          "name": "approved",
          "type": "bool"
        }
      ],
      "name": "setApprovalForAll",
      "outputs": [],
      "stateMutability": "nonpayable",
      "type": "function"
    },
    {
      "inputs": [
        {
          "internalType": "string",
          "name": "_tokenBaseURI",
          "type": "string"
        }
      ],
      "name": "setBaseURI",
      "outputs": [],
      "stateMutability": "nonpayable",
      "type": "function"
    },
    {
      "inputs": [
        {
          "internalType": "uint256",
          "name": "_tokenId",
          "type": "uint256"
        }
      ],
      "name": "setSelTokenID",
      "outputs": [],
      "stateMutability": "nonpayable",
      "type": "function"
    },
    {
      "inputs": [
        {
          "internalType": "bytes4",
          "name": "interfaceId",
          "type": "bytes4"
        }
      ],
      "name": "supportsInterface",
      "outputs": [
        {
          "internalType": "bool",
          "name": "",
          "type": "bool"
        }
      ],
      "stateMutability": "view",
      "type": "function"
    },
    {
      "inputs": [],
      "name": "symbol",
      "outputs": [
        {
          "internalType": "string",
          "name": "",
          "type": "string"
        }
      ],
      "stateMutability": "view",
      "type": "function"
    },
    {
      "inputs": [
        {
          "internalType": "uint256",
          "name": "_id",
          "type": "uint256"
        }
      ],
      "name": "totalSupply",
      "outputs": [
        {
          "internalType": "uint256",
          "name": "",
          "type": "uint256"
        }
      ],
      "stateMutability": "view",
      "type": "function"
    },
    {
      "inputs": [
        {
          "internalType": "address",
          "name": "newOwner",
          "type": "address"
        }
      ],
      "name": "transferOwnership",
      "outputs": [],
      "stateMutability": "nonpayable",
      "type": "function"
    },
    {
      "inputs": [
        {
          "internalType": "uint256",
          "name": "tokenId",
          "type": "uint256"
        }
      ],
      "name": "uri",
      "outputs": [
        {
          "internalType": "string",
          "name": "",
          "type": "string"
        }
      ],
      "stateMutability": "view",
      "type": "function"
    }
  ],
  "bytecode": "0x60c06040526005608081905264173539b7b760d91b60a0908152620000289160079190620001df565b5060016008556000600a553480156200004057600080fd5b50604051620024a5380380620024a583398101604081905262000063916200029b565b6040805160208101909152600081526200007d8162000105565b5062000089336200011e565b60408051808201909152600e8082526d21b93cb83a37abb4bd2fa4aa26b160911b6020909201918252620000c091600491620001df565b506040805180820190915260088082526721aba4ad34ba36b160c11b6020909201918252620000f291600591620001df565b50620000fe8162000170565b50620003b4565b80516200011a906002906020840190620001df565b5050565b600380546001600160a01b038381166001600160a01b0319831681179093556040519116919082907f8be0079c531659141344cd1fd0a4f28419497f9722a3daafe3b4186f6b6457e090600090a35050565b6003546001600160a01b03163314620001cf5760405162461bcd60e51b815260206004820181905260248201527f4f776e61626c653a2063616c6c6572206973206e6f7420746865206f776e6572604482015260640160405180910390fd5b80516200011a9060069060208401905b828054620001ed9062000377565b90600052602060002090601f0160209004810192826200021157600085556200025c565b82601f106200022c57805160ff19168380011785556200025c565b828001600101855582156200025c579182015b828111156200025c5782518255916020019190600101906200023f565b506200026a9291506200026e565b5090565b5b808211156200026a57600081556001016200026f565b634e487b7160e01b600052604160045260246000fd5b60006020808385031215620002af57600080fd5b82516001600160401b0380821115620002c757600080fd5b818501915085601f830112620002dc57600080fd5b815181811115620002f157620002f162000285565b604051601f8201601f19908116603f011681019083821181831017156200031c576200031c62000285565b8160405282815288868487010111156200033557600080fd5b600093505b828410156200035957848401860151818501870152928501926200033a565b828411156200036b5760008684830101525b98975050505050505050565b600181811c908216806200038c57607f821691505b60208210811415620003ae57634e487b7160e01b600052602260045260246000fd5b50919050565b6120e180620003c46000396000f3fe6080604052600436106101345760003560e01c80638da5cb5b116100ab578063d3fc98641161006f578063d3fc986414610365578063e293a54a14610385578063e985e9c514610398578063f242432a146103e1578063f2fde38b14610401578063f5298aca1461042157600080fd5b80638da5cb5b146102c657806395d89b41146102ee578063a22cb46514610303578063bd85b03914610323578063c66828621461035057600080fd5b80634e1273f4116100fd5780634e1273f4146102005780634f558e791461022d57806355f804b31461025c578063591aefa21461027c5780636c0360eb1461029c578063715018a6146102b157600080fd5b8062fdd58e1461013957806301ffc9a71461016c57806306fdde031461019c5780630e89341c146101be5780632eb2c2d6146101de575b600080fd5b34801561014557600080fd5b506101596101543660046116b6565b610441565b6040519081526020015b60405180910390f35b34801561017857600080fd5b5061018c6101873660046116f6565b6104d8565b6040519015158152602001610163565b3480156101a857600080fd5b506101b161052a565b604051610163919061176f565b3480156101ca57600080fd5b506101b16101d9366004611782565b6105b8565b3480156101ea57600080fd5b506101fe6101f93660046118e7565b61068d565b005b34801561020c57600080fd5b5061022061021b366004611991565b610724565b6040516101639190611a97565b34801561023957600080fd5b5061018c610248366004611782565b600090815260096020526040902054151590565b34801561026857600080fd5b506101fe610277366004611aaa565b61084e565b34801561028857600080fd5b506101fe610297366004611782565b61088f565b3480156102a857600080fd5b506101b16108be565b3480156102bd57600080fd5b506101fe6108cb565b3480156102d257600080fd5b506003546040516001600160a01b039091168152602001610163565b3480156102fa57600080fd5b506101b1610901565b34801561030f57600080fd5b506101fe61031e366004611adf565b61090e565b34801561032f57600080fd5b5061015961033e366004611782565b60009081526009602052604090205490565b34801561035c57600080fd5b506101b1610919565b34801561037157600080fd5b506101fe610380366004611b1b565b610926565b6101fe610393366004611b72565b61099a565b3480156103a457600080fd5b5061018c6103b3366004611b8d565b6001600160a01b03918216600090815260016020908152604080832093909416825291909152205460ff1690565b3480156103ed57600080fd5b506101fe6103fc366004611bc0565b6109e4565b34801561040d57600080fd5b506101fe61041c366004611b72565b610a6b565b34801561042d57600080fd5b506101fe61043c366004611c25565b610b03565b60006001600160a01b0383166104b25760405162461bcd60e51b815260206004820152602b60248201527f455243313135353a2062616c616e636520717565727920666f7220746865207a60448201526a65726f206164647265737360a81b60648201526084015b60405180910390fd5b506000908152602081815260408083206001600160a01b03949094168352929052205490565b60006001600160e01b03198216636cdb3d1360e11b148061050957506001600160e01b031982166303a24d0760e21b145b8061052457506301ffc9a760e01b6001600160e01b03198316145b92915050565b6004805461053790611c58565b80601f016020809104026020016040519081016040528092919081815260200182805461056390611c58565b80156105b05780601f10610585576101008083540402835291602001916105b0565b820191906000526020600020905b81548152906001019060200180831161059357829003601f168201915b505050505081565b60008181526009602052604090205460609061062e5760405162461bcd60e51b815260206004820152602f60248201527f4552433732314d657461646174613a2055524920717565727920666f72206e6f60448201526e3732bc34b9ba32b73a103a37b5b2b760891b60648201526084016104a9565b6000610638610b38565b905060008151116106585760405180602001604052806000815250610686565b8061066284610bca565b600760405160200161067693929190611c93565b6040516020818303038152906040525b9392505050565b6001600160a01b0385163314806106a957506106a985336103b3565b6107105760405162461bcd60e51b815260206004820152603260248201527f455243313135353a207472616e736665722063616c6c6572206973206e6f74206044820152711bdddb995c881b9bdc88185c1c1c9bdd995960721b60648201526084016104a9565b61071d8585858585610cd0565b5050505050565b606081518351146107895760405162461bcd60e51b815260206004820152602960248201527f455243313135353a206163636f756e747320616e6420696473206c656e677468604482015268040dad2e6dac2e8c6d60bb1b60648201526084016104a9565b6000835167ffffffffffffffff8111156107a5576107a561179b565b6040519080825280602002602001820160405280156107ce578160200160208202803683370190505b50905060005b8451811015610846576108198582815181106107f2576107f2611d57565b602002602001015185838151811061080c5761080c611d57565b6020026020010151610441565b82828151811061082b5761082b611d57565b602090810291909101015261083f81611d83565b90506107d4565b509392505050565b6003546001600160a01b031633146108785760405162461bcd60e51b81526004016104a990611d9e565b805161088b906006906020840190611601565b5050565b6003546001600160a01b031633146108b95760405162461bcd60e51b81526004016104a990611d9e565b600855565b6006805461053790611c58565b6003546001600160a01b031633146108f55760405162461bcd60e51b81526004016104a990611d9e565b6108ff6000610ead565b565b6005805461053790611c58565b61088b338383610eff565b6007805461053790611c58565b6003546001600160a01b031633146109505760405162461bcd60e51b81526004016104a990611d9e565b60085460009081526009602052604081208054849290610971908490611dd3565b92505081905550610995836008548460405180602001604052806000815250610fe0565b505050565b60085460009081526009602052604081208054600192906109bc908490611dd3565b925050819055506109e181600854600160405180602001604052806000815250610fe0565b50565b6001600160a01b038516331480610a005750610a0085336103b3565b610a5e5760405162461bcd60e51b815260206004820152602960248201527f455243313135353a2063616c6c6572206973206e6f74206f776e6572206e6f7260448201526808185c1c1c9bdd995960ba1b60648201526084016104a9565b61071d85858585856110ea565b6003546001600160a01b03163314610a955760405162461bcd60e51b81526004016104a990611d9e565b6001600160a01b038116610afa5760405162461bcd60e51b815260206004820152602660248201527f4f776e61626c653a206e6577206f776e657220697320746865207a65726f206160448201526564647265737360d01b60648201526084016104a9565b6109e181610ead565b6003546001600160a01b03163314610b2d5760405162461bcd60e51b81526004016104a990611d9e565b610995838383611207565b606060068054610b4790611c58565b80601f0160208091040260200160405190810160405280929190818152602001828054610b7390611c58565b8015610bc05780601f10610b9557610100808354040283529160200191610bc0565b820191906000526020600020905b815481529060010190602001808311610ba357829003601f168201915b5050505050905090565b606081610bee5750506040805180820190915260018152600360fc1b602082015290565b8160005b8115610c185780610c0281611d83565b9150610c119050600a83611e01565b9150610bf2565b60008167ffffffffffffffff811115610c3357610c3361179b565b6040519080825280601f01601f191660200182016040528015610c5d576020820181803683370190505b5090505b8415610cc857610c72600183611e15565b9150610c7f600a86611e2c565b610c8a906030611dd3565b60f81b818381518110610c9f57610c9f611d57565b60200101906001600160f81b031916908160001a905350610cc1600a86611e01565b9450610c61565b949350505050565b8151835114610d325760405162461bcd60e51b815260206004820152602860248201527f455243313135353a2069647320616e6420616d6f756e7473206c656e677468206044820152670dad2e6dac2e8c6d60c31b60648201526084016104a9565b6001600160a01b038416610d585760405162461bcd60e51b81526004016104a990611e40565b3360005b8451811015610e3f576000858281518110610d7957610d79611d57565b602002602001015190506000858381518110610d9757610d97611d57565b602090810291909101810151600084815280835260408082206001600160a01b038e168352909352919091205490915081811015610de75760405162461bcd60e51b81526004016104a990611e85565b6000838152602081815260408083206001600160a01b038e8116855292528083208585039055908b16825281208054849290610e24908490611dd3565b9250508190555050505080610e3890611d83565b9050610d5c565b50846001600160a01b0316866001600160a01b0316826001600160a01b03167f4a39dc06d4c0dbc64b70af90fd698a233a518aa5d07e595d983b8c0526c8f7fb8787604051610e8f929190611ecf565b60405180910390a4610ea5818787878787611381565b505050505050565b600380546001600160a01b038381166001600160a01b0319831681179093556040519116919082907f8be0079c531659141344cd1fd0a4f28419497f9722a3daafe3b4186f6b6457e090600090a35050565b816001600160a01b0316836001600160a01b03161415610f735760405162461bcd60e51b815260206004820152602960248201527f455243313135353a2073657474696e6720617070726f76616c20737461747573604482015268103337b91039b2b63360b91b60648201526084016104a9565b6001600160a01b03838116600081815260016020908152604080832094871680845294825291829020805460ff191686151590811790915591519182527f17307eab39ab6107e8899845ad3d59bd9653f200f220920489ca2b5937696c31910160405180910390a3505050565b6001600160a01b0384166110405760405162461bcd60e51b815260206004820152602160248201527f455243313135353a206d696e7420746f20746865207a65726f206164647265736044820152607360f81b60648201526084016104a9565b3361105a81600087611051886114ec565b61071d886114ec565b6000848152602081815260408083206001600160a01b03891684529091528120805485929061108a908490611dd3565b909155505060408051858152602081018590526001600160a01b0380881692600092918516917fc3d58168c5ae7397731d063d5bbf3d657854427343f4c083240f7aacaa2d0f62910160405180910390a461071d81600087878787611537565b6001600160a01b0384166111105760405162461bcd60e51b81526004016104a990611e40565b33611120818787611051886114ec565b6000848152602081815260408083206001600160a01b038a168452909152902054838110156111615760405162461bcd60e51b81526004016104a990611e85565b6000858152602081815260408083206001600160a01b038b811685529252808320878503905590881682528120805486929061119e908490611dd3565b909155505060408051868152602081018690526001600160a01b03808916928a821692918616917fc3d58168c5ae7397731d063d5bbf3d657854427343f4c083240f7aacaa2d0f62910160405180910390a46111fe828888888888611537565b50505050505050565b6001600160a01b0383166112695760405162461bcd60e51b815260206004820152602360248201527f455243313135353a206275726e2066726f6d20746865207a65726f206164647260448201526265737360e81b60648201526084016104a9565b336112998185600061127a876114ec565b611283876114ec565b5050604080516020810190915260009052505050565b6000838152602081815260408083206001600160a01b0388168452909152902054828110156113165760405162461bcd60e51b8152602060048201526024808201527f455243313135353a206275726e20616d6f756e7420657863656564732062616c604482015263616e636560e01b60648201526084016104a9565b6000848152602081815260408083206001600160a01b03898116808652918452828520888703905582518981529384018890529092908616917fc3d58168c5ae7397731d063d5bbf3d657854427343f4c083240f7aacaa2d0f62910160405180910390a45050505050565b6001600160a01b0384163b15610ea55760405163bc197c8160e01b81526001600160a01b0385169063bc197c81906113c59089908990889088908890600401611efd565b602060405180830381600087803b1580156113df57600080fd5b505af192505050801561140f575060408051601f3d908101601f1916820190925261140c91810190611f5b565b60015b6114bc5761141b611f78565b806308c379a014156114555750611430611f94565b8061143b5750611457565b8060405162461bcd60e51b81526004016104a9919061176f565b505b60405162461bcd60e51b815260206004820152603460248201527f455243313135353a207472616e7366657220746f206e6f6e20455243313135356044820152732932b1b2b4bb32b91034b6b83632b6b2b73a32b960611b60648201526084016104a9565b6001600160e01b0319811663bc197c8160e01b146111fe5760405162461bcd60e51b81526004016104a99061201e565b6040805160018082528183019092526060916000919060208083019080368337019050509050828160008151811061152657611526611d57565b602090810291909101015292915050565b6001600160a01b0384163b15610ea55760405163f23a6e6160e01b81526001600160a01b0385169063f23a6e619061157b9089908990889088908890600401612066565b602060405180830381600087803b15801561159557600080fd5b505af19250505080156115c5575060408051601f3d908101601f191682019092526115c291810190611f5b565b60015b6115d15761141b611f78565b6001600160e01b0319811663f23a6e6160e01b146111fe5760405162461bcd60e51b81526004016104a99061201e565b82805461160d90611c58565b90600052602060002090601f01602090048101928261162f5760008555611675565b82601f1061164857805160ff1916838001178555611675565b82800160010185558215611675579182015b8281111561167557825182559160200191906001019061165a565b50611681929150611685565b5090565b5b808211156116815760008155600101611686565b80356001600160a01b03811681146116b157600080fd5b919050565b600080604083850312156116c957600080fd5b6116d28361169a565b946020939093013593505050565b6001600160e01b0319811681146109e157600080fd5b60006020828403121561170857600080fd5b8135610686816116e0565b60005b8381101561172e578181015183820152602001611716565b8381111561173d576000848401525b50505050565b6000815180845261175b816020860160208601611713565b601f01601f19169290920160200192915050565b6020815260006106866020830184611743565b60006020828403121561179457600080fd5b5035919050565b634e487b7160e01b600052604160045260246000fd5b601f8201601f1916810167ffffffffffffffff811182821017156117d7576117d761179b565b6040525050565b600067ffffffffffffffff8211156117f8576117f861179b565b5060051b60200190565b600082601f83011261181357600080fd5b81356020611820826117de565b60405161182d82826117b1565b83815260059390931b850182019282810191508684111561184d57600080fd5b8286015b848110156118685780358352918301918301611851565b509695505050505050565b600082601f83011261188457600080fd5b813567ffffffffffffffff81111561189e5761189e61179b565b6040516118b5601f8301601f1916602001826117b1565b8181528460208386010111156118ca57600080fd5b816020850160208301376000918101602001919091529392505050565b600080600080600060a086880312156118ff57600080fd5b6119088661169a565b94506119166020870161169a565b9350604086013567ffffffffffffffff8082111561193357600080fd5b61193f89838a01611802565b9450606088013591508082111561195557600080fd5b61196189838a01611802565b9350608088013591508082111561197757600080fd5b5061198488828901611873565b9150509295509295909350565b600080604083850312156119a457600080fd5b823567ffffffffffffffff808211156119bc57600080fd5b818501915085601f8301126119d057600080fd5b813560206119dd826117de565b6040516119ea82826117b1565b83815260059390931b8501820192828101915089841115611a0a57600080fd5b948201945b83861015611a2f57611a208661169a565b82529482019490820190611a0f565b96505086013592505080821115611a4557600080fd5b50611a5285828601611802565b9150509250929050565b600081518084526020808501945080840160005b83811015611a8c57815187529582019590820190600101611a70565b509495945050505050565b6020815260006106866020830184611a5c565b600060208284031215611abc57600080fd5b813567ffffffffffffffff811115611ad357600080fd5b610cc884828501611873565b60008060408385031215611af257600080fd5b611afb8361169a565b915060208301358015158114611b1057600080fd5b809150509250929050565b600080600060608486031215611b3057600080fd5b611b398461169a565b925060208401359150604084013567ffffffffffffffff811115611b5c57600080fd5b611b6886828701611873565b9150509250925092565b600060208284031215611b8457600080fd5b6106868261169a565b60008060408385031215611ba057600080fd5b611ba98361169a565b9150611bb76020840161169a565b90509250929050565b600080600080600060a08688031215611bd857600080fd5b611be18661169a565b9450611bef6020870161169a565b93506040860135925060608601359150608086013567ffffffffffffffff811115611c1957600080fd5b61198488828901611873565b600080600060608486031215611c3a57600080fd5b611c438461169a565b95602085013595506040909401359392505050565b600181811c90821680611c6c57607f821691505b60208210811415611c8d57634e487b7160e01b600052602260045260246000fd5b50919050565b600084516020611ca68285838a01611713565b855191840191611cb98184848a01611713565b8554920191600090600181811c9080831680611cd657607f831692505b858310811415611cf457634e487b7160e01b85526022600452602485fd5b808015611d085760018114611d1957611d46565b60ff19851688528388019550611d46565b60008b81526020902060005b85811015611d3e5781548a820152908401908801611d25565b505083880195505b50939b9a5050505050505050505050565b634e487b7160e01b600052603260045260246000fd5b634e487b7160e01b600052601160045260246000fd5b6000600019821415611d9757611d97611d6d565b5060010190565b6020808252818101527f4f776e61626c653a2063616c6c6572206973206e6f7420746865206f776e6572604082015260600190565b60008219821115611de657611de6611d6d565b500190565b634e487b7160e01b600052601260045260246000fd5b600082611e1057611e10611deb565b500490565b600082821015611e2757611e27611d6d565b500390565b600082611e3b57611e3b611deb565b500690565b60208082526025908201527f455243313135353a207472616e7366657220746f20746865207a65726f206164604082015264647265737360d81b606082015260800190565b6020808252602a908201527f455243313135353a20696e73756666696369656e742062616c616e636520666f60408201526939103a3930b739b332b960b11b606082015260800190565b604081526000611ee26040830185611a5c565b8281036020840152611ef48185611a5c565b95945050505050565b6001600160a01b0386811682528516602082015260a060408201819052600090611f2990830186611a5c565b8281036060840152611f3b8186611a5c565b90508281036080840152611f4f8185611743565b98975050505050505050565b600060208284031215611f6d57600080fd5b8151610686816116e0565b600060033d1115611f915760046000803e5060005160e01c5b90565b600060443d1015611fa25790565b6040516003193d81016004833e81513d67ffffffffffffffff8160248401118184111715611fd257505050505090565b8285019150815181811115611fea5750505050505090565b843d87010160208285010111156120045750505050505090565b612013602082860101876117b1565b509095945050505050565b60208082526028908201527f455243313135353a204552433131353552656365697665722072656a656374656040820152676420746f6b656e7360c01b606082015260800190565b6001600160a01b03868116825285166020820152604081018490526060810183905260a0608082018190526000906120a090830184611743565b97965050505050505056fea264697066735822122028c69d3a01517c52af0ba3b017104513b2b908cce49e9e6788a193b94e50442a64736f6c63430008090033",
  "linkReferences": {},
  "deployedLinkReferences": {}
}