{
  "_format": "hh-sol-artifact-1",
  "contractName": "CryptoWiz_ITMb",
  "sourceName": "contracts/CryptoWiz_ITMb.sol",
  "abi": [
    {
      "inputs": [
        {
          "internalType": "string",
          "name": "uri",
          "type": "string"
        }
      ],
      "stateMutability": "nonpayable",
      "type": "constructor"
    },
    {
      "anonymous": false,
      "inputs": [
        {
          "indexed": true,
          "internalType": "address",
          "name": "account",
          "type": "address"
        },
        {
          "indexed": true,
          "internalType": "address",
          "name": "operator",
          "type": "address"
        },
        {
          "indexed": false,
          "internalType": "bool",
          "name": "approved",
          "type": "bool"
        }
      ],
      "name": "ApprovalForAll",
      "type": "event"
    },
    {
      "anonymous": false,
      "inputs": [
        {
          "indexed": true,
          "internalType": "address",
          "name": "previousOwner",
          "type": "address"
        },
        {
          "indexed": true,
          "internalType": "address",
          "name": "newOwner",
          "type": "address"
        }
      ],
      "name": "OwnershipTransferred",
      "type": "event"
    },
    {
      "anonymous": false,
      "inputs": [
        {
          "indexed": true,
          "internalType": "address",
          "name": "operator",
          "type": "address"
        },
        {
          "indexed": true,
          "internalType": "address",
          "name": "from",
          "type": "address"
        },
        {
          "indexed": true,
          "internalType": "address",
          "name": "to",
          "type": "address"
        },
        {
          "indexed": false,
          "internalType": "uint256[]",
          "name": "ids",
          "type": "uint256[]"
        },
        {
          "indexed": false,
          "internalType": "uint256[]",
          "name": "values",
          "type": "uint256[]"
        }
      ],
      "name": "TransferBatch",
      "type": "event"
    },
    {
      "anonymous": false,
      "inputs": [
        {
          "indexed": true,
          "internalType": "address",
          "name": "operator",
          "type": "address"
        },
        {
          "indexed": true,
          "internalType": "address",
          "name": "from",
          "type": "address"
        },
        {
          "indexed": true,
          "internalType": "address",
          "name": "to",
          "type": "address"
        },
        {
          "indexed": false,
          "internalType": "uint256",
          "name": "id",
          "type": "uint256"
        },
        {
          "indexed": false,
          "internalType": "uint256",
          "name": "value",
          "type": "uint256"
        }
      ],
      "name": "TransferSingle",
      "type": "event"
    },
    {
      "anonymous": false,
      "inputs": [
        {
          "indexed": false,
          "internalType": "string",
          "name": "value",
          "type": "string"
        },
        {
          "indexed": true,
          "internalType": "uint256",
          "name": "id",
          "type": "uint256"
        }
      ],
      "name": "URI",
      "type": "event"
    },
    {
      "inputs": [
        {
          "internalType": "address",
          "name": "account",
          "type": "address"
        },
        {
          "internalType": "uint256",
          "name": "id",
          "type": "uint256"
        }
      ],
      "name": "balanceOf",
      "outputs": [
        {
          "internalType": "uint256",
          "name": "",
          "type": "uint256"
        }
      ],
      "stateMutability": "view",
      "type": "function"
    },
    {
      "inputs": [
        {
          "internalType": "address[]",
          "name": "accounts",
          "type": "address[]"
        },
        {
          "internalType": "uint256[]",
          "name": "ids",
          "type": "uint256[]"
        }
      ],
      "name": "balanceOfBatch",
      "outputs": [
        {
          "internalType": "uint256[]",
          "name": "",
          "type": "uint256[]"
        }
      ],
      "stateMutability": "view",
      "type": "function"
    },
    {
      "inputs": [],
      "name": "baseExtension",
      "outputs": [
        {
          "internalType": "string",
          "name": "",
          "type": "string"
        }
      ],
      "stateMutability": "view",
      "type": "function"
    },
    {
      "inputs": [],
      "name": "baseURI",
      "outputs": [
        {
          "internalType": "string",
          "name": "",
          "type": "string"
        }
      ],
      "stateMutability": "view",
      "type": "function"
    },
    {
      "inputs": [
        {
          "internalType": "address",
          "name": "from",
          "type": "address"
        },
        {
          "internalType": "uint256",
          "name": "id",
          "type": "uint256"
        },
        {
          "internalType": "uint256",
          "name": "amount",
          "type": "uint256"
        }
      ],
      "name": "burn",
      "outputs": [],
      "stateMutability": "nonpayable",
      "type": "function"
    },
    {
      "inputs": [
        {
          "internalType": "uint256",
          "name": "_id",
          "type": "uint256"
        }
      ],
      "name": "exists",
      "outputs": [
        {
          "internalType": "bool",
          "name": "",
          "type": "bool"
        }
      ],
      "stateMutability": "view",
      "type": "function"
    },
    {
      "inputs": [
        {
          "internalType": "address",
          "name": "account",
          "type": "address"
        },
        {
          "internalType": "address",
          "name": "operator",
          "type": "address"
        }
      ],
      "name": "isApprovedForAll",
      "outputs": [
        {
          "internalType": "bool",
          "name": "",
          "type": "bool"
        }
      ],
      "stateMutability": "view",
      "type": "function"
    },
    {
      "inputs": [
        {
          "internalType": "address",
          "name": "_to",
          "type": "address"
        },
        {
          "internalType": "uint256",
          "name": "_quantity",
          "type": "uint256"
        },
        {
          "internalType": "string",
          "name": "_hash",
          "type": "string"
        }
      ],
      "name": "mint",
      "outputs": [],
      "stateMutability": "nonpayable",
      "type": "function"
    },
    {
      "inputs": [],
      "name": "name",
      "outputs": [
        {
          "internalType": "string",
          "name": "",
          "type": "string"
        }
      ],
      "stateMutability": "view",
      "type": "function"
    },
    {
      "inputs": [],
      "name": "owner",
      "outputs": [
        {
          "internalType": "address",
          "name": "",
          "type": "address"
        }
      ],
      "stateMutability": "view",
      "type": "function"
    },
    {
      "inputs": [],
      "name": "renounceOwnership",
      "outputs": [],
      "stateMutability": "nonpayable",
      "type": "function"
    },
    {
      "inputs": [
        {
          "internalType": "address",
          "name": "from",
          "type": "address"
        },
        {
          "internalType": "address",
          "name": "to",
          "type": "address"
        },
        {
          "internalType": "uint256[]",
          "name": "ids",
          "type": "uint256[]"
        },
        {
          "internalType": "uint256[]",
          "name": "amounts",
          "type": "uint256[]"
        },
        {
          "internalType": "bytes",
          "name": "data",
          "type": "bytes"
        }
      ],
      "name": "safeBatchTransferFrom",
      "outputs": [],
      "stateMutability": "nonpayable",
      "type": "function"
    },
    {
      "inputs": [
        {
          "internalType": "address",
          "name": "from",
          "type": "address"
        },
        {
          "internalType": "address",
          "name": "to",
          "type": "address"
        },
        {
          "internalType": "uint256",
          "name": "id",
          "type": "uint256"
        },
        {
          "internalType": "uint256",
          "name": "amount",
          "type": "uint256"
        },
        {
          "internalType": "bytes",
          "name": "data",
          "type": "bytes"
        }
      ],
      "name": "safeTransferFrom",
      "outputs": [],
      "stateMutability": "nonpayable",
      "type": "function"
    },
    {
      "inputs": [
        {
          "internalType": "address",
          "name": "operator",
          "type": "address"
        },
        {
          "internalType": "bool",
          "name": "approved",
          "type": "bool"
        }
      ],
      "name": "setApprovalForAll",
      "outputs": [],
      "stateMutability": "nonpayable",
      "type": "function"
    },
    {
      "inputs": [
        {
          "internalType": "string",
          "name": "_tokenBaseURI",
          "type": "string"
        }
      ],
      "name": "setBaseURI",
      "outputs": [],
      "stateMutability": "nonpayable",
      "type": "function"
    },
    {
      "inputs": [
        {
          "internalType": "uint256",
          "name": "_tokenId",
          "type": "uint256"
        }
      ],
      "name": "setSelTokenID",
      "outputs": [],
      "stateMutability": "nonpayable",
      "type": "function"
    },
    {
      "inputs": [
        {
          "internalType": "bytes4",
          "name": "interfaceId",
          "type": "bytes4"
        }
      ],
      "name": "supportsInterface",
      "outputs": [
        {
          "internalType": "bool",
          "name": "",
          "type": "bool"
        }
      ],
      "stateMutability": "view",
      "type": "function"
    },
    {
      "inputs": [],
      "name": "symbol",
      "outputs": [
        {
          "internalType": "string",
          "name": "",
          "type": "string"
        }
      ],
      "stateMutability": "view",
      "type": "function"
    },
    {
      "inputs": [
        {
          "internalType": "uint256",
          "name": "_id",
          "type": "uint256"
        }
      ],
      "name": "totalSupply",
      "outputs": [
        {
          "internalType": "uint256",
          "name": "",
          "type": "uint256"
        }
      ],
      "stateMutability": "view",
      "type": "function"
    },
    {
      "inputs": [
        {
          "internalType": "address",
          "name": "newOwner",
          "type": "address"
        }
      ],
      "name": "transferOwnership",
      "outputs": [],
      "stateMutability": "nonpayable",
      "type": "function"
    },
    {
      "inputs": [
        {
          "internalType": "uint256",
          "name": "tokenId",
          "type": "uint256"
        }
      ],
      "name": "uri",
      "outputs": [
        {
          "internalType": "string",
          "name": "",
          "type": "string"
        }
      ],
      "stateMutability": "view",
      "type": "function"
    }
  ],
  "bytecode": "0x60c06040526005608081905264173539b7b760d91b60a0908152620000289160079190620001df565b5060016008556000600a553480156200004057600080fd5b50604051620023123803806200231283398101604081905262000063916200029b565b6040805160208101909152600081526200007d8162000105565b5062000089336200011e565b60408051808201909152600e8082526d21b93cb83a37abb4bd2fa4aa26b160911b6020909201918252620000c091600491620001df565b506040805180820190915260088082526721aba4ad34ba36b160c11b6020909201918252620000f291600591620001df565b50620000fe8162000170565b50620003b4565b80516200011a906002906020840190620001df565b5050565b600380546001600160a01b038381166001600160a01b0319831681179093556040519116919082907f8be0079c531659141344cd1fd0a4f28419497f9722a3daafe3b4186f6b6457e090600090a35050565b6003546001600160a01b03163314620001cf5760405162461bcd60e51b815260206004820181905260248201527f4f776e61626c653a2063616c6c6572206973206e6f7420746865206f776e6572604482015260640160405180910390fd5b80516200011a9060069060208401905b828054620001ed9062000377565b90600052602060002090601f0160209004810192826200021157600085556200025c565b82601f106200022c57805160ff19168380011785556200025c565b828001600101855582156200025c579182015b828111156200025c5782518255916020019190600101906200023f565b506200026a9291506200026e565b5090565b5b808211156200026a57600081556001016200026f565b634e487b7160e01b600052604160045260246000fd5b60006020808385031215620002af57600080fd5b82516001600160401b0380821115620002c757600080fd5b818501915085601f830112620002dc57600080fd5b815181811115620002f157620002f162000285565b604051601f8201601f19908116603f011681019083821181831017156200031c576200031c62000285565b8160405282815288868487010111156200033557600080fd5b600093505b828410156200035957848401860151818501870152928501926200033a565b828411156200036b5760008684830101525b98975050505050505050565b600181811c908216806200038c57607f821691505b60208210811415620003ae57634e487b7160e01b600052602260045260246000fd5b50919050565b611f4e80620003c46000396000f3fe608060405234801561001057600080fd5b50600436106101365760003560e01c8063715018a6116100b8578063c66828621161007c578063c66828621461028f578063d3fc986414610297578063e985e9c5146102aa578063f242432a146102e6578063f2fde38b146102f9578063f5298aca1461030c57600080fd5b8063715018a6146102315780638da5cb5b1461023957806395d89b4114610254578063a22cb4651461025c578063bd85b0391461026f57600080fd5b80634e1273f4116100ff5780634e1273f4146101c15780634f558e79146101e157806355f804b314610203578063591aefa2146102165780636c0360eb1461022957600080fd5b8062fdd58e1461013b57806301ffc9a71461016157806306fdde03146101845780630e89341c146101995780632eb2c2d6146101ac575b600080fd5b61014e610149366004611523565b61031f565b6040519081526020015b60405180910390f35b61017461016f366004611563565b6103b6565b6040519015158152602001610158565b61018c610408565b60405161015891906115dc565b61018c6101a73660046115ef565b610496565b6101bf6101ba366004611754565b61056b565b005b6101d46101cf3660046117fe565b610602565b6040516101589190611904565b6101746101ef3660046115ef565b600090815260096020526040902054151590565b6101bf610211366004611917565b61072c565b6101bf6102243660046115ef565b61076d565b61018c61079c565b6101bf6107a9565b6003546040516001600160a01b039091168152602001610158565b61018c6107df565b6101bf61026a36600461194c565b6107ec565b61014e61027d3660046115ef565b60009081526009602052604090205490565b61018c6107f7565b6101bf6102a5366004611988565b610804565b6101746102b83660046119df565b6001600160a01b03918216600090815260016020908152604080832093909416825291909152205460ff1690565b6101bf6102f4366004611a12565b61084e565b6101bf610307366004611a77565b6108d5565b6101bf61031a366004611a92565b610970565b60006001600160a01b0383166103905760405162461bcd60e51b815260206004820152602b60248201527f455243313135353a2062616c616e636520717565727920666f7220746865207a60448201526a65726f206164647265737360a81b60648201526084015b60405180910390fd5b506000908152602081815260408083206001600160a01b03949094168352929052205490565b60006001600160e01b03198216636cdb3d1360e11b14806103e757506001600160e01b031982166303a24d0760e21b145b8061040257506301ffc9a760e01b6001600160e01b03198316145b92915050565b6004805461041590611ac5565b80601f016020809104026020016040519081016040528092919081815260200182805461044190611ac5565b801561048e5780601f106104635761010080835404028352916020019161048e565b820191906000526020600020905b81548152906001019060200180831161047157829003601f168201915b505050505081565b60008181526009602052604090205460609061050c5760405162461bcd60e51b815260206004820152602f60248201527f4552433732314d657461646174613a2055524920717565727920666f72206e6f60448201526e3732bc34b9ba32b73a103a37b5b2b760891b6064820152608401610387565b60006105166109a5565b905060008151116105365760405180602001604052806000815250610564565b8061054084610a37565b600760405160200161055493929190611b00565b6040516020818303038152906040525b9392505050565b6001600160a01b038516331480610587575061058785336102b8565b6105ee5760405162461bcd60e51b815260206004820152603260248201527f455243313135353a207472616e736665722063616c6c6572206973206e6f74206044820152711bdddb995c881b9bdc88185c1c1c9bdd995960721b6064820152608401610387565b6105fb8585858585610b3d565b5050505050565b606081518351146106675760405162461bcd60e51b815260206004820152602960248201527f455243313135353a206163636f756e747320616e6420696473206c656e677468604482015268040dad2e6dac2e8c6d60bb1b6064820152608401610387565b6000835167ffffffffffffffff81111561068357610683611608565b6040519080825280602002602001820160405280156106ac578160200160208202803683370190505b50905060005b8451811015610724576106f78582815181106106d0576106d0611bc4565b60200260200101518583815181106106ea576106ea611bc4565b602002602001015161031f565b82828151811061070957610709611bc4565b602090810291909101015261071d81611bf0565b90506106b2565b509392505050565b6003546001600160a01b031633146107565760405162461bcd60e51b815260040161038790611c0b565b805161076990600690602084019061146e565b5050565b6003546001600160a01b031633146107975760405162461bcd60e51b815260040161038790611c0b565b600855565b6006805461041590611ac5565b6003546001600160a01b031633146107d35760405162461bcd60e51b815260040161038790611c0b565b6107dd6000610d1a565b565b6005805461041590611ac5565b610769338383610d6c565b6007805461041590611ac5565b60085460009081526009602052604081208054849290610825908490611c40565b92505081905550610849836008548460405180602001604052806000815250610e4d565b505050565b6001600160a01b03851633148061086a575061086a85336102b8565b6108c85760405162461bcd60e51b815260206004820152602960248201527f455243313135353a2063616c6c6572206973206e6f74206f776e6572206e6f7260448201526808185c1c1c9bdd995960ba1b6064820152608401610387565b6105fb8585858585610f57565b6003546001600160a01b031633146108ff5760405162461bcd60e51b815260040161038790611c0b565b6001600160a01b0381166109645760405162461bcd60e51b815260206004820152602660248201527f4f776e61626c653a206e6577206f776e657220697320746865207a65726f206160448201526564647265737360d01b6064820152608401610387565b61096d81610d1a565b50565b6003546001600160a01b0316331461099a5760405162461bcd60e51b815260040161038790611c0b565b610849838383611074565b6060600680546109b490611ac5565b80601f01602080910402602001604051908101604052809291908181526020018280546109e090611ac5565b8015610a2d5780601f10610a0257610100808354040283529160200191610a2d565b820191906000526020600020905b815481529060010190602001808311610a1057829003601f168201915b5050505050905090565b606081610a5b5750506040805180820190915260018152600360fc1b602082015290565b8160005b8115610a855780610a6f81611bf0565b9150610a7e9050600a83611c6e565b9150610a5f565b60008167ffffffffffffffff811115610aa057610aa0611608565b6040519080825280601f01601f191660200182016040528015610aca576020820181803683370190505b5090505b8415610b3557610adf600183611c82565b9150610aec600a86611c99565b610af7906030611c40565b60f81b818381518110610b0c57610b0c611bc4565b60200101906001600160f81b031916908160001a905350610b2e600a86611c6e565b9450610ace565b949350505050565b8151835114610b9f5760405162461bcd60e51b815260206004820152602860248201527f455243313135353a2069647320616e6420616d6f756e7473206c656e677468206044820152670dad2e6dac2e8c6d60c31b6064820152608401610387565b6001600160a01b038416610bc55760405162461bcd60e51b815260040161038790611cad565b3360005b8451811015610cac576000858281518110610be657610be6611bc4565b602002602001015190506000858381518110610c0457610c04611bc4565b602090810291909101810151600084815280835260408082206001600160a01b038e168352909352919091205490915081811015610c545760405162461bcd60e51b815260040161038790611cf2565b6000838152602081815260408083206001600160a01b038e8116855292528083208585039055908b16825281208054849290610c91908490611c40565b9250508190555050505080610ca590611bf0565b9050610bc9565b50846001600160a01b0316866001600160a01b0316826001600160a01b03167f4a39dc06d4c0dbc64b70af90fd698a233a518aa5d07e595d983b8c0526c8f7fb8787604051610cfc929190611d3c565b60405180910390a4610d128187878787876111ee565b505050505050565b600380546001600160a01b038381166001600160a01b0319831681179093556040519116919082907f8be0079c531659141344cd1fd0a4f28419497f9722a3daafe3b4186f6b6457e090600090a35050565b816001600160a01b0316836001600160a01b03161415610de05760405162461bcd60e51b815260206004820152602960248201527f455243313135353a2073657474696e6720617070726f76616c20737461747573604482015268103337b91039b2b63360b91b6064820152608401610387565b6001600160a01b03838116600081815260016020908152604080832094871680845294825291829020805460ff191686151590811790915591519182527f17307eab39ab6107e8899845ad3d59bd9653f200f220920489ca2b5937696c31910160405180910390a3505050565b6001600160a01b038416610ead5760405162461bcd60e51b815260206004820152602160248201527f455243313135353a206d696e7420746f20746865207a65726f206164647265736044820152607360f81b6064820152608401610387565b33610ec781600087610ebe88611359565b6105fb88611359565b6000848152602081815260408083206001600160a01b038916845290915281208054859290610ef7908490611c40565b909155505060408051858152602081018590526001600160a01b0380881692600092918516917fc3d58168c5ae7397731d063d5bbf3d657854427343f4c083240f7aacaa2d0f62910160405180910390a46105fb816000878787876113a4565b6001600160a01b038416610f7d5760405162461bcd60e51b815260040161038790611cad565b33610f8d818787610ebe88611359565b6000848152602081815260408083206001600160a01b038a16845290915290205483811015610fce5760405162461bcd60e51b815260040161038790611cf2565b6000858152602081815260408083206001600160a01b038b811685529252808320878503905590881682528120805486929061100b908490611c40565b909155505060408051868152602081018690526001600160a01b03808916928a821692918616917fc3d58168c5ae7397731d063d5bbf3d657854427343f4c083240f7aacaa2d0f62910160405180910390a461106b8288888888886113a4565b50505050505050565b6001600160a01b0383166110d65760405162461bcd60e51b815260206004820152602360248201527f455243313135353a206275726e2066726f6d20746865207a65726f206164647260448201526265737360e81b6064820152608401610387565b33611106818560006110e787611359565b6110f087611359565b5050604080516020810190915260009052505050565b6000838152602081815260408083206001600160a01b0388168452909152902054828110156111835760405162461bcd60e51b8152602060048201526024808201527f455243313135353a206275726e20616d6f756e7420657863656564732062616c604482015263616e636560e01b6064820152608401610387565b6000848152602081815260408083206001600160a01b03898116808652918452828520888703905582518981529384018890529092908616917fc3d58168c5ae7397731d063d5bbf3d657854427343f4c083240f7aacaa2d0f62910160405180910390a45050505050565b6001600160a01b0384163b15610d125760405163bc197c8160e01b81526001600160a01b0385169063bc197c81906112329089908990889088908890600401611d6a565b602060405180830381600087803b15801561124c57600080fd5b505af192505050801561127c575060408051601f3d908101601f1916820190925261127991810190611dc8565b60015b61132957611288611de5565b806308c379a014156112c2575061129d611e01565b806112a857506112c4565b8060405162461bcd60e51b815260040161038791906115dc565b505b60405162461bcd60e51b815260206004820152603460248201527f455243313135353a207472616e7366657220746f206e6f6e20455243313135356044820152732932b1b2b4bb32b91034b6b83632b6b2b73a32b960611b6064820152608401610387565b6001600160e01b0319811663bc197c8160e01b1461106b5760405162461bcd60e51b815260040161038790611e8b565b6040805160018082528183019092526060916000919060208083019080368337019050509050828160008151811061139357611393611bc4565b602090810291909101015292915050565b6001600160a01b0384163b15610d125760405163f23a6e6160e01b81526001600160a01b0385169063f23a6e61906113e89089908990889088908890600401611ed3565b602060405180830381600087803b15801561140257600080fd5b505af1925050508015611432575060408051601f3d908101601f1916820190925261142f91810190611dc8565b60015b61143e57611288611de5565b6001600160e01b0319811663f23a6e6160e01b1461106b5760405162461bcd60e51b815260040161038790611e8b565b82805461147a90611ac5565b90600052602060002090601f01602090048101928261149c57600085556114e2565b82601f106114b557805160ff19168380011785556114e2565b828001600101855582156114e2579182015b828111156114e25782518255916020019190600101906114c7565b506114ee9291506114f2565b5090565b5b808211156114ee57600081556001016114f3565b80356001600160a01b038116811461151e57600080fd5b919050565b6000806040838503121561153657600080fd5b61153f83611507565b946020939093013593505050565b6001600160e01b03198116811461096d57600080fd5b60006020828403121561157557600080fd5b81356105648161154d565b60005b8381101561159b578181015183820152602001611583565b838111156115aa576000848401525b50505050565b600081518084526115c8816020860160208601611580565b601f01601f19169290920160200192915050565b60208152600061056460208301846115b0565b60006020828403121561160157600080fd5b5035919050565b634e487b7160e01b600052604160045260246000fd5b601f8201601f1916810167ffffffffffffffff8111828210171561164457611644611608565b6040525050565b600067ffffffffffffffff82111561166557611665611608565b5060051b60200190565b600082601f83011261168057600080fd5b8135602061168d8261164b565b60405161169a828261161e565b83815260059390931b85018201928281019150868411156116ba57600080fd5b8286015b848110156116d557803583529183019183016116be565b509695505050505050565b600082601f8301126116f157600080fd5b813567ffffffffffffffff81111561170b5761170b611608565b604051611722601f8301601f19166020018261161e565b81815284602083860101111561173757600080fd5b816020850160208301376000918101602001919091529392505050565b600080600080600060a0868803121561176c57600080fd5b61177586611507565b945061178360208701611507565b9350604086013567ffffffffffffffff808211156117a057600080fd5b6117ac89838a0161166f565b945060608801359150808211156117c257600080fd5b6117ce89838a0161166f565b935060808801359150808211156117e457600080fd5b506117f1888289016116e0565b9150509295509295909350565b6000806040838503121561181157600080fd5b823567ffffffffffffffff8082111561182957600080fd5b818501915085601f83011261183d57600080fd5b8135602061184a8261164b565b604051611857828261161e565b83815260059390931b850182019282810191508984111561187757600080fd5b948201945b8386101561189c5761188d86611507565b8252948201949082019061187c565b965050860135925050808211156118b257600080fd5b506118bf8582860161166f565b9150509250929050565b600081518084526020808501945080840160005b838110156118f9578151875295820195908201906001016118dd565b509495945050505050565b60208152600061056460208301846118c9565b60006020828403121561192957600080fd5b813567ffffffffffffffff81111561194057600080fd5b610b35848285016116e0565b6000806040838503121561195f57600080fd5b61196883611507565b91506020830135801515811461197d57600080fd5b809150509250929050565b60008060006060848603121561199d57600080fd5b6119a684611507565b925060208401359150604084013567ffffffffffffffff8111156119c957600080fd5b6119d5868287016116e0565b9150509250925092565b600080604083850312156119f257600080fd5b6119fb83611507565b9150611a0960208401611507565b90509250929050565b600080600080600060a08688031215611a2a57600080fd5b611a3386611507565b9450611a4160208701611507565b93506040860135925060608601359150608086013567ffffffffffffffff811115611a6b57600080fd5b6117f1888289016116e0565b600060208284031215611a8957600080fd5b61056482611507565b600080600060608486031215611aa757600080fd5b611ab084611507565b95602085013595506040909401359392505050565b600181811c90821680611ad957607f821691505b60208210811415611afa57634e487b7160e01b600052602260045260246000fd5b50919050565b600084516020611b138285838a01611580565b855191840191611b268184848a01611580565b8554920191600090600181811c9080831680611b4357607f831692505b858310811415611b6157634e487b7160e01b85526022600452602485fd5b808015611b755760018114611b8657611bb3565b60ff19851688528388019550611bb3565b60008b81526020902060005b85811015611bab5781548a820152908401908801611b92565b505083880195505b50939b9a5050505050505050505050565b634e487b7160e01b600052603260045260246000fd5b634e487b7160e01b600052601160045260246000fd5b6000600019821415611c0457611c04611bda565b5060010190565b6020808252818101527f4f776e61626c653a2063616c6c6572206973206e6f7420746865206f776e6572604082015260600190565b60008219821115611c5357611c53611bda565b500190565b634e487b7160e01b600052601260045260246000fd5b600082611c7d57611c7d611c58565b500490565b600082821015611c9457611c94611bda565b500390565b600082611ca857611ca8611c58565b500690565b60208082526025908201527f455243313135353a207472616e7366657220746f20746865207a65726f206164604082015264647265737360d81b606082015260800190565b6020808252602a908201527f455243313135353a20696e73756666696369656e742062616c616e636520666f60408201526939103a3930b739b332b960b11b606082015260800190565b604081526000611d4f60408301856118c9565b8281036020840152611d6181856118c9565b95945050505050565b6001600160a01b0386811682528516602082015260a060408201819052600090611d96908301866118c9565b8281036060840152611da881866118c9565b90508281036080840152611dbc81856115b0565b98975050505050505050565b600060208284031215611dda57600080fd5b81516105648161154d565b600060033d1115611dfe5760046000803e5060005160e01c5b90565b600060443d1015611e0f5790565b6040516003193d81016004833e81513d67ffffffffffffffff8160248401118184111715611e3f57505050505090565b8285019150815181811115611e575750505050505090565b843d8701016020828501011115611e715750505050505090565b611e806020828601018761161e565b509095945050505050565b60208082526028908201527f455243313135353a204552433131353552656365697665722072656a656374656040820152676420746f6b656e7360c01b606082015260800190565b6001600160a01b03868116825285166020820152604081018490526060810183905260a060808201819052600090611f0d908301846115b0565b97965050505050505056fea26469706673582212200879abd750ce0739a3a484fcf3392c9eb831d7c8b8efadafd1e47164d72eee7664736f6c63430008090033",
  "linkReferences": {},
  "deployedLinkReferences": {}
}