{
  "_format": "hh-sol-artifact-1",
  "contractName": "CryptoWiz_PGb",
  "sourceName": "contracts/CryptoWiz_PGb.sol",
  "abi": [
    {
      "inputs": [
        {
          "internalType": "string",
          "name": "uri",
          "type": "string"
        },
        {
          "internalType": "bytes32",
          "name": "merkleroot",
          "type": "bytes32"
        },
        {
          "internalType": "address",
          "name": "_proxyRegistryAddress",
          "type": "address"
        }
      ],
      "stateMutability": "nonpayable",
      "type": "constructor"
    },
    {
      "anonymous": false,
      "inputs": [
        {
          "indexed": true,
          "internalType": "address",
          "name": "owner",
          "type": "address"
        },
        {
          "indexed": true,
          "internalType": "address",
          "name": "approved",
          "type": "address"
        },
        {
          "indexed": true,
          "internalType": "uint256",
          "name": "tokenId",
          "type": "uint256"
        }
      ],
      "name": "Approval",
      "type": "event"
    },
    {
      "anonymous": false,
      "inputs": [
        {
          "indexed": true,
          "internalType": "address",
          "name": "owner",
          "type": "address"
        },
        {
          "indexed": true,
          "internalType": "address",
          "name": "operator",
          "type": "address"
        },
        {
          "indexed": false,
          "internalType": "bool",
          "name": "approved",
          "type": "bool"
        }
      ],
      "name": "ApprovalForAll",
      "type": "event"
    },
    {
      "anonymous": false,
      "inputs": [
        {
          "indexed": true,
          "internalType": "contract IERC20",
          "name": "token",
          "type": "address"
        },
        {
          "indexed": false,
          "internalType": "address",
          "name": "to",
          "type": "address"
        },
        {
          "indexed": false,
          "internalType": "uint256",
          "name": "amount",
          "type": "uint256"
        }
      ],
      "name": "ERC20PaymentReleased",
      "type": "event"
    },
    {
      "anonymous": false,
      "inputs": [
        {
          "indexed": true,
          "internalType": "address",
          "name": "previousOwner",
          "type": "address"
        },
        {
          "indexed": true,
          "internalType": "address",
          "name": "newOwner",
          "type": "address"
        }
      ],
      "name": "OwnershipTransferred",
      "type": "event"
    },
    {
      "anonymous": false,
      "inputs": [
        {
          "indexed": false,
          "internalType": "address",
          "name": "account",
          "type": "address"
        },
        {
          "indexed": false,
          "internalType": "uint256",
          "name": "shares",
          "type": "uint256"
        }
      ],
      "name": "PayeeAdded",
      "type": "event"
    },
    {
      "anonymous": false,
      "inputs": [
        {
          "indexed": false,
          "internalType": "address",
          "name": "from",
          "type": "address"
        },
        {
          "indexed": false,
          "internalType": "uint256",
          "name": "amount",
          "type": "uint256"
        }
      ],
      "name": "PaymentReceived",
      "type": "event"
    },
    {
      "anonymous": false,
      "inputs": [
        {
          "indexed": false,
          "internalType": "address",
          "name": "to",
          "type": "address"
        },
        {
          "indexed": false,
          "internalType": "uint256",
          "name": "amount",
          "type": "uint256"
        }
      ],
      "name": "PaymentReleased",
      "type": "event"
    },
    {
      "anonymous": false,
      "inputs": [
        {
          "indexed": true,
          "internalType": "address",
          "name": "from",
          "type": "address"
        },
        {
          "indexed": true,
          "internalType": "address",
          "name": "to",
          "type": "address"
        },
        {
          "indexed": true,
          "internalType": "uint256",
          "name": "tokenId",
          "type": "uint256"
        }
      ],
      "name": "Transfer",
      "type": "event"
    },
    {
      "inputs": [
        {
          "internalType": "address",
          "name": "",
          "type": "address"
        }
      ],
      "name": "_presaleClaimed",
      "outputs": [
        {
          "internalType": "uint256",
          "name": "",
          "type": "uint256"
        }
      ],
      "stateMutability": "view",
      "type": "function"
    },
    {
      "inputs": [
        {
          "internalType": "address",
          "name": "to",
          "type": "address"
        },
        {
          "internalType": "uint256",
          "name": "tokenId",
          "type": "uint256"
        }
      ],
      "name": "approve",
      "outputs": [],
      "stateMutability": "nonpayable",
      "type": "function"
    },
    {
      "inputs": [
        {
          "internalType": "address",
          "name": "owner",
          "type": "address"
        }
      ],
      "name": "balanceOf",
      "outputs": [
        {
          "internalType": "uint256",
          "name": "",
          "type": "uint256"
        }
      ],
      "stateMutability": "view",
      "type": "function"
    },
    {
      "inputs": [],
      "name": "baseExtension",
      "outputs": [
        {
          "internalType": "string",
          "name": "",
          "type": "string"
        }
      ],
      "stateMutability": "view",
      "type": "function"
    },
    {
      "inputs": [],
      "name": "baseURI",
      "outputs": [
        {
          "internalType": "string",
          "name": "",
          "type": "string"
        }
      ],
      "stateMutability": "view",
      "type": "function"
    },
    {
      "inputs": [
        {
          "internalType": "uint256",
          "name": "tokenId",
          "type": "uint256"
        }
      ],
      "name": "burn",
      "outputs": [],
      "stateMutability": "nonpayable",
      "type": "function"
    },
    {
      "inputs": [
        {
          "internalType": "uint256",
          "name": "tokenId",
          "type": "uint256"
        }
      ],
      "name": "getApproved",
      "outputs": [
        {
          "internalType": "address",
          "name": "",
          "type": "address"
        }
      ],
      "stateMutability": "view",
      "type": "function"
    },
    {
      "inputs": [
        {
          "internalType": "address",
          "name": "owner",
          "type": "address"
        },
        {
          "internalType": "address",
          "name": "operator",
          "type": "address"
        }
      ],
      "name": "isApprovedForAll",
      "outputs": [
        {
          "internalType": "bool",
          "name": "",
          "type": "bool"
        }
      ],
      "stateMutability": "view",
      "type": "function"
    },
    {
      "inputs": [],
      "name": "maxSupply",
      "outputs": [
        {
          "internalType": "uint256",
          "name": "",
          "type": "uint256"
        }
      ],
      "stateMutability": "view",
      "type": "function"
    },
    {
      "inputs": [],
      "name": "name",
      "outputs": [
        {
          "internalType": "string",
          "name": "",
          "type": "string"
        }
      ],
      "stateMutability": "view",
      "type": "function"
    },
    {
      "inputs": [],
      "name": "notRevealedUri",
      "outputs": [
        {
          "internalType": "string",
          "name": "",
          "type": "string"
        }
      ],
      "stateMutability": "view",
      "type": "function"
    },
    {
      "inputs": [],
      "name": "owner",
      "outputs": [
        {
          "internalType": "address",
          "name": "",
          "type": "address"
        }
      ],
      "stateMutability": "view",
      "type": "function"
    },
    {
      "inputs": [
        {
          "internalType": "uint256",
          "name": "tokenId",
          "type": "uint256"
        }
      ],
      "name": "ownerOf",
      "outputs": [
        {
          "internalType": "address",
          "name": "",
          "type": "address"
        }
      ],
      "stateMutability": "view",
      "type": "function"
    },
    {
      "inputs": [],
      "name": "paused",
      "outputs": [
        {
          "internalType": "bool",
          "name": "",
          "type": "bool"
        }
      ],
      "stateMutability": "view",
      "type": "function"
    },
    {
      "inputs": [
        {
          "internalType": "uint256",
          "name": "index",
          "type": "uint256"
        }
      ],
      "name": "payee",
      "outputs": [
        {
          "internalType": "address",
          "name": "",
          "type": "address"
        }
      ],
      "stateMutability": "view",
      "type": "function"
    },
    {
      "inputs": [],
      "name": "presaleM",
      "outputs": [
        {
          "internalType": "bool",
          "name": "",
          "type": "bool"
        }
      ],
      "stateMutability": "view",
      "type": "function"
    },
    {
      "inputs": [
        {
          "internalType": "address",
          "name": "account",
          "type": "address"
        },
        {
          "internalType": "uint256",
          "name": "_amount",
          "type": "uint256"
        },
        {
          "internalType": "bytes32[]",
          "name": "_proof",
          "type": "bytes32[]"
        }
      ],
      "name": "presaleMint",
      "outputs": [],
      "stateMutability": "payable",
      "type": "function"
    },
    {
      "inputs": [],
      "name": "publicM",
      "outputs": [
        {
          "internalType": "bool",
          "name": "",
          "type": "bool"
        }
      ],
      "stateMutability": "view",
      "type": "function"
    },
    {
      "inputs": [
        {
          "internalType": "uint256",
          "name": "_amount",
          "type": "uint256"
        }
      ],
      "name": "publicSaleMint",
      "outputs": [],
      "stateMutability": "payable",
      "type": "function"
    },
    {
      "inputs": [
        {
          "internalType": "address payable",
          "name": "account",
          "type": "address"
        }
      ],
      "name": "release",
      "outputs": [],
      "stateMutability": "nonpayable",
      "type": "function"
    },
    {
      "inputs": [
        {
          "internalType": "contract IERC20",
          "name": "token",
          "type": "address"
        },
        {
          "internalType": "address",
          "name": "account",
          "type": "address"
        }
      ],
      "name": "release",
      "outputs": [],
      "stateMutability": "nonpayable",
      "type": "function"
    },
    {
      "inputs": [
        {
          "internalType": "contract IERC20",
          "name": "token",
          "type": "address"
        },
        {
          "internalType": "address",
          "name": "account",
          "type": "address"
        }
      ],
      "name": "released",
      "outputs": [
        {
          "internalType": "uint256",
          "name": "",
          "type": "uint256"
        }
      ],
      "stateMutability": "view",
      "type": "function"
    },
    {
      "inputs": [
        {
          "internalType": "address",
          "name": "account",
          "type": "address"
        }
      ],
      "name": "released",
      "outputs": [
        {
          "internalType": "uint256",
          "name": "",
          "type": "uint256"
        }
      ],
      "stateMutability": "view",
      "type": "function"
    },
    {
      "inputs": [],
      "name": "renounceOwnership",
      "outputs": [],
      "stateMutability": "nonpayable",
      "type": "function"
    },
    {
      "inputs": [],
      "name": "reveal",
      "outputs": [],
      "stateMutability": "nonpayable",
      "type": "function"
    },
    {
      "inputs": [],
      "name": "revealed",
      "outputs": [
        {
          "internalType": "bool",
          "name": "",
          "type": "bool"
        }
      ],
      "stateMutability": "view",
      "type": "function"
    },
    {
      "inputs": [],
      "name": "root",
      "outputs": [
        {
          "internalType": "bytes32",
          "name": "",
          "type": "bytes32"
        }
      ],
      "stateMutability": "view",
      "type": "function"
    },
    {
      "inputs": [
        {
          "internalType": "address",
          "name": "from",
          "type": "address"
        },
        {
          "internalType": "address",
          "name": "to",
          "type": "address"
        },
        {
          "internalType": "uint256",
          "name": "tokenId",
          "type": "uint256"
        }
      ],
      "name": "safeTransferFrom",
      "outputs": [],
      "stateMutability": "nonpayable",
      "type": "function"
    },
    {
      "inputs": [
        {
          "internalType": "address",
          "name": "from",
          "type": "address"
        },
        {
          "internalType": "address",
          "name": "to",
          "type": "address"
        },
        {
          "internalType": "uint256",
          "name": "tokenId",
          "type": "uint256"
        },
        {
          "internalType": "bytes",
          "name": "_data",
          "type": "bytes"
        }
      ],
      "name": "safeTransferFrom",
      "outputs": [],
      "stateMutability": "nonpayable",
      "type": "function"
    },
    {
      "inputs": [
        {
          "internalType": "address",
          "name": "operator",
          "type": "address"
        },
        {
          "internalType": "bool",
          "name": "approved",
          "type": "bool"
        }
      ],
      "name": "setApprovalForAll",
      "outputs": [],
      "stateMutability": "nonpayable",
      "type": "function"
    },
    {
      "inputs": [
        {
          "internalType": "string",
          "name": "_newBaseExtension",
          "type": "string"
        }
      ],
      "name": "setBaseExtension",
      "outputs": [],
      "stateMutability": "nonpayable",
      "type": "function"
    },
    {
      "inputs": [
        {
          "internalType": "string",
          "name": "_tokenBaseURI",
          "type": "string"
        }
      ],
      "name": "setBaseURI",
      "outputs": [],
      "stateMutability": "nonpayable",
      "type": "function"
    },
    {
      "inputs": [
        {
          "internalType": "bytes32",
          "name": "merkleroot",
          "type": "bytes32"
        }
      ],
      "name": "setMerkleRoot",
      "outputs": [],
      "stateMutability": "nonpayable",
      "type": "function"
    },
    {
      "inputs": [
        {
          "internalType": "string",
          "name": "_notRevealedURI",
          "type": "string"
        }
      ],
      "name": "setNotRevealedURI",
      "outputs": [],
      "stateMutability": "nonpayable",
      "type": "function"
    },
    {
      "inputs": [
        {
          "internalType": "uint256",
          "name": "_supply",
          "type": "uint256"
        }
      ],
      "name": "setmaxSupply",
      "outputs": [],
      "stateMutability": "nonpayable",
      "type": "function"
    },
    {
      "inputs": [
        {
          "internalType": "address",
          "name": "account",
          "type": "address"
        }
      ],
      "name": "shares",
      "outputs": [
        {
          "internalType": "uint256",
          "name": "",
          "type": "uint256"
        }
      ],
      "stateMutability": "view",
      "type": "function"
    },
    {
      "inputs": [
        {
          "internalType": "bytes4",
          "name": "interfaceId",
          "type": "bytes4"
        }
      ],
      "name": "supportsInterface",
      "outputs": [
        {
          "internalType": "bool",
          "name": "",
          "type": "bool"
        }
      ],
      "stateMutability": "view",
      "type": "function"
    },
    {
      "inputs": [],
      "name": "symbol",
      "outputs": [
        {
          "internalType": "string",
          "name": "",
          "type": "string"
        }
      ],
      "stateMutability": "view",
      "type": "function"
    },
    {
      "inputs": [],
      "name": "togglePause",
      "outputs": [],
      "stateMutability": "nonpayable",
      "type": "function"
    },
    {
      "inputs": [],
      "name": "togglePresale",
      "outputs": [],
      "stateMutability": "nonpayable",
      "type": "function"
    },
    {
      "inputs": [],
      "name": "togglePublicSale",
      "outputs": [],
      "stateMutability": "nonpayable",
      "type": "function"
    },
    {
      "inputs": [
        {
          "internalType": "uint256",
          "name": "tokenId",
          "type": "uint256"
        }
      ],
      "name": "tokenURI",
      "outputs": [
        {
          "internalType": "string",
          "name": "",
          "type": "string"
        }
      ],
      "stateMutability": "view",
      "type": "function"
    },
    {
      "inputs": [
        {
          "internalType": "contract IERC20",
          "name": "token",
          "type": "address"
        }
      ],
      "name": "totalReleased",
      "outputs": [
        {
          "internalType": "uint256",
          "name": "",
          "type": "uint256"
        }
      ],
      "stateMutability": "view",
      "type": "function"
    },
    {
      "inputs": [],
      "name": "totalReleased",
      "outputs": [
        {
          "internalType": "uint256",
          "name": "",
          "type": "uint256"
        }
      ],
      "stateMutability": "view",
      "type": "function"
    },
    {
      "inputs": [],
      "name": "totalShares",
      "outputs": [
        {
          "internalType": "uint256",
          "name": "",
          "type": "uint256"
        }
      ],
      "stateMutability": "view",
      "type": "function"
    },
    {
      "inputs": [],
      "name": "totalSupply",
      "outputs": [
        {
          "internalType": "uint256",
          "name": "",
          "type": "uint256"
        }
      ],
      "stateMutability": "view",
      "type": "function"
    },
    {
      "inputs": [
        {
          "internalType": "address",
          "name": "from",
          "type": "address"
        },
        {
          "internalType": "address",
          "name": "to",
          "type": "address"
        },
        {
          "internalType": "uint256",
          "name": "tokenId",
          "type": "uint256"
        }
      ],
      "name": "transferFrom",
      "outputs": [],
      "stateMutability": "nonpayable",
      "type": "function"
    },
    {
      "inputs": [
        {
          "internalType": "address",
          "name": "newOwner",
          "type": "address"
        }
      ],
      "name": "transferOwnership",
      "outputs": [],
      "stateMutability": "nonpayable",
      "type": "function"
    },
    {
      "stateMutability": "payable",
      "type": "receive"
    }
  ],
  "bytecode": "0x600a601155610100604052604160808181529062003bd260a03980516200002f91601391602090910190620006a9565b5060408051808201909152600580825264173539b7b760d91b60209092019182526200005e91601491620006a9565b506015805463ffffffff191663010001001790556003601681905566038d7ea4c6800060185560408051606081018252600a8152602d6020820181905291810191909152620000b191601a919062000738565b506040805160608101825273922552a229404a159789d850cb9566c72a22a36c815273c01346c420669ca0a2580ab3a92c65e295c3f12160208201527349b363595ecdb335bea64e4850472d9ef0609c99918101919091526200011990601b9060036200077b565b503480156200012757600080fd5b5060405162003c1338038062003c138339810160408190526200014a916200081d565b601b805480602002602001604051908101604052809291908181526020018280548015620001a257602002820191906000526020600020905b81546001600160a01b0316815260019091019060200180831162000183575b5050505050601a805480602002602001604051908101604052809291908181526020018280548015620001f557602002820191906000526020600020905b815481526020019060010190808311620001e0575b5050604080518082018252600d81526c21b93cb83a37abb4bd2fa823b160991b60208083019182528351808501909452600784526621aba4ad3833b160c91b90840152815191955091935062000250925060009190620006a9565b50805162000266906001906020840190620006a9565b505050620002836200027d620003f060201b60201c565b620003f4565b60016007558051825114620002fa5760405162461bcd60e51b815260206004820152603260248201527f5061796d656e7453706c69747465723a2070617965657320616e6420736861726044820152710cae640d8cadccee8d040dad2e6dac2e8c6d60731b60648201526084015b60405180910390fd5b60008251116200034d5760405162461bcd60e51b815260206004820152601a60248201527f5061796d656e7453706c69747465723a206e6f207061796565730000000000006044820152606401620002f1565b60005b8251811015620003b957620003a483828151811062000373576200037362000918565b602002602001015183838151811062000390576200039062000918565b60200260200101516200044660201b60201c565b80620003b08162000944565b91505062000350565b505050600f829055601080546001600160a01b0319166001600160a01b038316179055620003e78362000634565b505050620009ba565b3390565b600680546001600160a01b038381166001600160a01b0319831681179093556040519116919082907f8be0079c531659141344cd1fd0a4f28419497f9722a3daafe3b4186f6b6457e090600090a35050565b6001600160a01b038216620004b35760405162461bcd60e51b815260206004820152602c60248201527f5061796d656e7453706c69747465723a206163636f756e74206973207468652060448201526b7a65726f206164647265737360a01b6064820152608401620002f1565b60008111620005055760405162461bcd60e51b815260206004820152601d60248201527f5061796d656e7453706c69747465723a207368617265732061726520300000006044820152606401620002f1565b6001600160a01b0382166000908152600a602052604090205415620005815760405162461bcd60e51b815260206004820152602b60248201527f5061796d656e7453706c69747465723a206163636f756e7420616c726561647960448201526a206861732073686172657360a81b6064820152608401620002f1565b600c8054600181019091557fdf6966c971051c3d54ec59162606531493a51404a002842f56009d7e5cf4a8c70180546001600160a01b0319166001600160a01b0384169081179091556000908152600a60205260409020819055600854620005eb90829062000962565b600855604080516001600160a01b0384168152602081018390527f40c340f65e17194d14ddddb073d3c9f888e3cb52b5aae0c6c7706b4fbc905fac910160405180910390a15050565b6006546001600160a01b03163314620006905760405162461bcd60e51b815260206004820181905260248201527f4f776e61626c653a2063616c6c6572206973206e6f7420746865206f776e65726044820152606401620002f1565b8051620006a5906012906020840190620006a9565b5050565b828054620006b7906200097d565b90600052602060002090601f016020900481019282620006db576000855562000726565b82601f10620006f657805160ff191683800117855562000726565b8280016001018555821562000726579182015b828111156200072657825182559160200191906001019062000709565b5062000734929150620007d3565b5090565b82805482825590600052602060002090810192821562000726579160200282015b8281111562000726578251829060ff1690559160200191906001019062000759565b82805482825590600052602060002090810192821562000726579160200282015b828111156200072657825182546001600160a01b0319166001600160a01b039091161782556020909201916001909101906200079c565b5b80821115620007345760008155600101620007d4565b634e487b7160e01b600052604160045260246000fd5b80516001600160a01b03811681146200081857600080fd5b919050565b6000806000606084860312156200083357600080fd5b83516001600160401b03808211156200084b57600080fd5b818601915086601f8301126200086057600080fd5b815181811115620008755762000875620007ea565b604051601f8201601f19908116603f01168101908382118183101715620008a057620008a0620007ea565b81604052828152602093508984848701011115620008bd57600080fd5b600091505b82821015620008e15784820184015181830185015290830190620008c2565b82821115620008f35760008484830101525b80975050505080860151935050506200090f6040850162000800565b90509250925092565b634e487b7160e01b600052603260045260246000fd5b634e487b7160e01b600052601160045260246000fd5b60006000198214156200095b576200095b6200092e565b5060010190565b600082198211156200097857620009786200092e565b500190565b600181811c908216806200099257607f821691505b60208210811415620009b457634e487b7160e01b600052602260045260246000fd5b50919050565b61320880620009ca6000396000f3fe6080604052600436106102975760003560e01c80638b83209b1161015a578063c6682862116100c1578063e222c7f91161007a578063e222c7f91461083f578063e33b7de314610854578063e985e9c514610869578063ebf0c71714610889578063f2c4ce1e1461089f578063f2fde38b146108bf57600080fd5b8063c668286214610768578063c87b56dd1461077d578063ce7c2ac21461079d578063d5abeb01146107d3578063d79779b2146107e9578063da3ef23f1461081f57600080fd5b8063a22cb46511610113578063a22cb465146106ca578063a45063c0146106ea578063a475b5dd1461070b578063b3ab66b014610720578063b88d4fde14610733578063c4ae31681461075357600080fd5b80638b83209b146106015780638cc4de19146106215780638da5cb5b1461064e578063954dc3e31461066c57806395d89b411461067f5780639852595c1461069457600080fd5b8063406072a9116101fe5780635c975abb116101b75780635c975abb1461055d5780636352211e146105775780636c0360eb1461059757806370a08231146105ac578063715018a6146105cc5780637cb64759146105e157600080fd5b8063406072a91461047857806342842e0e146104be57806342966c68146104de57806348b75044146104fe578063518302271461051e57806355f804b31461053d57600080fd5b806318160ddd1161025057806318160ddd146103cb57806319165587146103ee578063228025e81461040e57806323b872dd1461042e578063343937431461044e5780633a98ef391461046357600080fd5b806301ffc9a7146102e557806306fdde031461031a578063081812fc1461033c578063081c8c4414610374578063095ea7b3146103895780631798d58b146103ab57600080fd5b366102e0577f6ef95f06320e7a25a04a175ca677b7052bdd97131872c2192525a629f51be77033604080516001600160a01b0390921682523460208301520160405180910390a1005b600080fd5b3480156102f157600080fd5b50610305610300366004612981565b6108df565b60405190151581526020015b60405180910390f35b34801561032657600080fd5b5061032f610931565b60405161031191906129f6565b34801561034857600080fd5b5061035c610357366004612a09565b6109c3565b6040516001600160a01b039091168152602001610311565b34801561038057600080fd5b5061032f610a5d565b34801561039557600080fd5b506103a96103a4366004612a37565b610aeb565b005b3480156103b757600080fd5b506015546103059062010000900460ff1681565b3480156103d757600080fd5b506103e0610c01565b604051908152602001610311565b3480156103fa57600080fd5b506103a9610409366004612a63565b610c11565b34801561041a57600080fd5b506103a9610429366004612a09565b610d3f565b34801561043a57600080fd5b506103a9610449366004612a80565b610d6e565b34801561045a57600080fd5b506103a9610d9f565b34801561046f57600080fd5b506008546103e0565b34801561048457600080fd5b506103e0610493366004612ac1565b6001600160a01b039182166000908152600e6020908152604080832093909416825291909152205490565b3480156104ca57600080fd5b506103a96104d9366004612a80565b610de8565b3480156104ea57600080fd5b506103a96104f9366004612a09565b610e03565b34801561050a57600080fd5b506103a9610519366004612ac1565b610e39565b34801561052a57600080fd5b5060155461030590610100900460ff1681565b34801561054957600080fd5b506103a9610558366004612b86565b611021565b34801561056957600080fd5b506015546103059060ff1681565b34801561058357600080fd5b5061035c610592366004612a09565b611062565b3480156105a357600080fd5b5061032f6110d9565b3480156105b857600080fd5b506103e06105c7366004612a63565b6110e6565b3480156105d857600080fd5b506103a961116d565b3480156105ed57600080fd5b506103a96105fc366004612a09565b6111a3565b34801561060d57600080fd5b5061035c61061c366004612a09565b6111d2565b34801561062d57600080fd5b506103e061063c366004612a63565b60176020526000908152604090205481565b34801561065a57600080fd5b506006546001600160a01b031661035c565b6103a961067a366004612bcf565b611202565b34801561068b57600080fd5b5061032f611504565b3480156106a057600080fd5b506103e06106af366004612a63565b6001600160a01b03166000908152600b602052604090205490565b3480156106d657600080fd5b506103a96106e5366004612c69565b611513565b3480156106f657600080fd5b50601554610305906301000000900460ff1681565b34801561071757600080fd5b506103a961151e565b6103a961072e366004612a09565b611559565b34801561073f57600080fd5b506103a961074e366004612c97565b61172f565b34801561075f57600080fd5b506103a9611767565b34801561077457600080fd5b5061032f6117a5565b34801561078957600080fd5b5061032f610798366004612a09565b6117b2565b3480156107a957600080fd5b506103e06107b8366004612a63565b6001600160a01b03166000908152600a602052604090205490565b3480156107df57600080fd5b506103e060115481565b3480156107f557600080fd5b506103e0610804366004612a63565b6001600160a01b03166000908152600d602052604090205490565b34801561082b57600080fd5b506103a961083a366004612b86565b611931565b34801561084b57600080fd5b506103a961196e565b34801561086057600080fd5b506009546103e0565b34801561087557600080fd5b50610305610884366004612ac1565b6119b9565b34801561089557600080fd5b506103e0600f5481565b3480156108ab57600080fd5b506103a96108ba366004612b86565b611a89565b3480156108cb57600080fd5b506103a96108da366004612a63565b611ac6565b60006001600160e01b031982166380ac58cd60e01b148061091057506001600160e01b03198216635b5e139f60e01b145b8061092b57506301ffc9a760e01b6001600160e01b03198316145b92915050565b60606000805461094090612d17565b80601f016020809104026020016040519081016040528092919081815260200182805461096c90612d17565b80156109b95780601f1061098e576101008083540402835291602001916109b9565b820191906000526020600020905b81548152906001019060200180831161099c57829003601f168201915b5050505050905090565b6000818152600260205260408120546001600160a01b0316610a415760405162461bcd60e51b815260206004820152602c60248201527f4552433732313a20617070726f76656420717565727920666f72206e6f6e657860448201526b34b9ba32b73a103a37b5b2b760a11b60648201526084015b60405180910390fd5b506000908152600460205260409020546001600160a01b031690565b60138054610a6a90612d17565b80601f0160208091040260200160405190810160405280929190818152602001828054610a9690612d17565b8015610ae35780601f10610ab857610100808354040283529160200191610ae3565b820191906000526020600020905b815481529060010190602001808311610ac657829003601f168201915b505050505081565b6000610af682611062565b9050806001600160a01b0316836001600160a01b03161415610b645760405162461bcd60e51b815260206004820152602160248201527f4552433732313a20617070726f76616c20746f2063757272656e74206f776e656044820152603960f91b6064820152608401610a38565b336001600160a01b0382161480610b805750610b8081336119b9565b610bf25760405162461bcd60e51b815260206004820152603860248201527f4552433732313a20617070726f76652063616c6c6572206973206e6f74206f7760448201527f6e6572206e6f7220617070726f76656420666f7220616c6c00000000000000006064820152608401610a38565b610bfc8383611b5e565b505050565b6000610c0c60195490565b905090565b6001600160a01b0381166000908152600a6020526040902054610c465760405162461bcd60e51b8152600401610a3890612d52565b6000610c5160095490565b610c5b9047612dae565b90506000610c888383610c83866001600160a01b03166000908152600b602052604090205490565b611bcc565b905080610ca75760405162461bcd60e51b8152600401610a3890612dc6565b6001600160a01b0383166000908152600b602052604081208054839290610ccf908490612dae565b925050819055508060096000828254610ce89190612dae565b90915550610cf890508382611c0a565b604080516001600160a01b0385168152602081018390527fdf20fd1e76bc69d672e4814fafb2c449bba3a5369d8359adf9e05e6fde87b056910160405180910390a1505050565b6006546001600160a01b03163314610d695760405162461bcd60e51b8152600401610a3890612e11565b601155565b610d783382611d23565b610d945760405162461bcd60e51b8152600401610a3890612e46565b610bfc838383611df2565b6006546001600160a01b03163314610dc95760405162461bcd60e51b8152600401610a3890612e11565b6015805462ff0000198116620100009182900460ff1615909102179055565b610bfc8383836040518060200160405280600081525061172f565b6006546001600160a01b03163314610e2d5760405162461bcd60e51b8152600401610a3890612e11565b610e3681611f8e565b50565b6001600160a01b0381166000908152600a6020526040902054610e6e5760405162461bcd60e51b8152600401610a3890612d52565b6001600160a01b0382166000908152600d60205260408120546040516370a0823160e01b81523060048201526001600160a01b038516906370a082319060240160206040518083038186803b158015610ec657600080fd5b505afa158015610eda573d6000803e3d6000fd5b505050506040513d601f19601f82011682018060405250810190610efe9190612e97565b610f089190612dae565b90506000610f418383610c8387876001600160a01b039182166000908152600e6020908152604080832093909416825291909152205490565b905080610f605760405162461bcd60e51b8152600401610a3890612dc6565b6001600160a01b038085166000908152600e6020908152604080832093871683529290529081208054839290610f97908490612dae565b90915550506001600160a01b0384166000908152600d602052604081208054839290610fc4908490612dae565b90915550610fd59050848483612029565b604080516001600160a01b038581168252602082018490528616917f3be5b7a71e84ed12875d241991c70855ac5817d847039e17a9d895c1ceb0f18a910160405180910390a250505050565b6006546001600160a01b0316331461104b5760405162461bcd60e51b8152600401610a3890612e11565b805161105e9060129060208401906128d2565b5050565b6000818152600260205260408120546001600160a01b03168061092b5760405162461bcd60e51b815260206004820152602960248201527f4552433732313a206f776e657220717565727920666f72206e6f6e657869737460448201526832b73a103a37b5b2b760b91b6064820152608401610a38565b60128054610a6a90612d17565b60006001600160a01b0382166111515760405162461bcd60e51b815260206004820152602a60248201527f4552433732313a2062616c616e636520717565727920666f7220746865207a65604482015269726f206164647265737360b01b6064820152608401610a38565b506001600160a01b031660009081526003602052604090205490565b6006546001600160a01b031633146111975760405162461bcd60e51b8152600401610a3890612e11565b6111a1600061207b565b565b6006546001600160a01b031633146111cd5760405162461bcd60e51b8152600401610a3890612e11565b600f55565b6000600c82815481106111e7576111e7612eb0565b6000918252602090912001546001600160a01b031692915050565b818161127982828080602002602001604051908101604052809392919081815260200183836020028082843760009201919091525050600f546040516bffffffffffffffffffffffff193360601b1660208201529092506034019050604051602081830303815290604052805190602001206120cd565b151560011461129a5760405162461bcd60e51b8152600401610a3890612ec6565b3332146112b95760405162461bcd60e51b8152600401610a3890612ec6565b336001600160a01b038716146113115760405162461bcd60e51b815260206004820152601760248201527f43727970746f57697a733a204e6f7420616c6c6f7765640000000000000000006044820152606401610a38565b60155462010000900460ff166113695760405162461bcd60e51b815260206004820152601a60248201527f43727970746f57697a733a2050726573616c65206973204f46460000000000006044820152606401610a38565b60155460ff16156113bc5760405162461bcd60e51b815260206004820152601e60248201527f43727970746f57697a733a20436f6e74726163742069732070617573656400006044820152606401610a38565b6016548511156113de5760405162461bcd60e51b8152600401610a3890612ef2565b601654336000908152601760205260409020546113fc908790612dae565b111561141a5760405162461bcd60e51b8152600401610a3890612ef2565b600061142560195490565b6011549091506114358783612dae565b11156114835760405162461bcd60e51b815260206004820152601f60248201527f43727970746f57697a733a206d617820737570706c79206578636565646564006044820152606401610a38565b34866018546114929190612f3b565b11156114b05760405162461bcd60e51b8152600401610a3890612f5a565b33600090815260176020526040812080548892906114cf908490612dae565b90915550600090505b868110156114fa576114e86120e3565b806114f281612f9c565b9150506114d8565b5050505050505050565b60606001805461094090612d17565b61105e338383612168565b6006546001600160a01b031633146115485760405162461bcd60e51b8152600401610a3890612e11565b6015805461ff001916610100179055565b3332146115785760405162461bcd60e51b8152600401610a3890612ec6565b6015546301000000900460ff166115d15760405162461bcd60e51b815260206004820152601d60248201527f43727970746f57697a733a205075626c696353616c65206973204f46460000006044820152606401610a38565b60155460ff16156116245760405162461bcd60e51b815260206004820152601e60248201527f43727970746f57697a733a20436f6e74726163742069732070617573656400006044820152606401610a38565b600081116116745760405162461bcd60e51b815260206004820152601760248201527f43727970746f57697a733a207a65726f20616d6f756e740000000000000000006044820152606401610a38565b600061167f60195490565b60115490915061168f8383612dae565b11156116dd5760405162461bcd60e51b815260206004820152601f60248201527f43727970746f57697a733a204d617820737570706c79206578636565646564006044820152606401610a38565b34826018546116ec9190612f3b565b111561170a5760405162461bcd60e51b8152600401610a3890612f5a565b60005b82811015610bfc5761171d6120e3565b8061172781612f9c565b91505061170d565b6117393383611d23565b6117555760405162461bcd60e51b8152600401610a3890612e46565b61176184848484612237565b50505050565b6006546001600160a01b031633146117915760405162461bcd60e51b8152600401610a3890612e11565b6015805460ff19811660ff90911615179055565b60148054610a6a90612d17565b6000818152600260205260409020546060906001600160a01b03166118315760405162461bcd60e51b815260206004820152602f60248201527f4552433732314d657461646174613a2055524920717565727920666f72206e6f60448201526e3732bc34b9ba32b73a103a37b5b2b760891b6064820152608401610a38565b601554610100900460ff166118d2576013805461184d90612d17565b80601f016020809104026020016040519081016040528092919081815260200182805461187990612d17565b80156118c65780601f1061189b576101008083540402835291602001916118c6565b820191906000526020600020905b8154815290600101906020018083116118a957829003601f168201915b50505050509050919050565b60006118dc61226a565b905060008151116118fc576040518060200160405280600081525061192a565b8061190684612279565b601460405160200161191a93929190612fb7565b6040516020818303038152906040525b9392505050565b6006546001600160a01b0316331461195b5760405162461bcd60e51b8152600401610a3890612e11565b805161105e9060149060208401906128d2565b6006546001600160a01b031633146119985760405162461bcd60e51b8152600401610a3890612e11565b6015805463ff00000019811663010000009182900460ff1615909102179055565b60105460405163c455279160e01b81526001600160a01b03848116600483015260009281169190841690829063c45527919060240160206040518083038186803b158015611a0657600080fd5b505afa158015611a1a573d6000803e3d6000fd5b505050506040513d601f19601f82011682018060405250810190611a3e919061307b565b6001600160a01b03161415611a5757600191505061092b565b6001600160a01b0380851660009081526005602090815260408083209387168352929052205460ff165b949350505050565b6006546001600160a01b03163314611ab35760405162461bcd60e51b8152600401610a3890612e11565b805161105e9060139060208401906128d2565b6006546001600160a01b03163314611af05760405162461bcd60e51b8152600401610a3890612e11565b6001600160a01b038116611b555760405162461bcd60e51b815260206004820152602660248201527f4f776e61626c653a206e6577206f776e657220697320746865207a65726f206160448201526564647265737360d01b6064820152608401610a38565b610e368161207b565b600081815260046020526040902080546001600160a01b0319166001600160a01b0384169081179091558190611b9382611062565b6001600160a01b03167f8c5be1e5ebec7d5bd14f71427d1e84f3dd0314c0f7b2291e5b200ac8c7c3b92560405160405180910390a45050565b6008546001600160a01b0384166000908152600a602052604081205490918391611bf69086612f3b565b611c0091906130ae565b611a8191906130c2565b80471015611c5a5760405162461bcd60e51b815260206004820152601d60248201527f416464726573733a20696e73756666696369656e742062616c616e63650000006044820152606401610a38565b6000826001600160a01b03168260405160006040518083038185875af1925050503d8060008114611ca7576040519150601f19603f3d011682016040523d82523d6000602084013e611cac565b606091505b5050905080610bfc5760405162461bcd60e51b815260206004820152603a60248201527f416464726573733a20756e61626c6520746f2073656e642076616c75652c207260448201527f6563697069656e74206d617920686176652072657665727465640000000000006064820152608401610a38565b6000818152600260205260408120546001600160a01b0316611d9c5760405162461bcd60e51b815260206004820152602c60248201527f4552433732313a206f70657261746f7220717565727920666f72206e6f6e657860448201526b34b9ba32b73a103a37b5b2b760a11b6064820152608401610a38565b6000611da783611062565b9050806001600160a01b0316846001600160a01b03161480611de25750836001600160a01b0316611dd7846109c3565b6001600160a01b0316145b80611a815750611a8181856119b9565b826001600160a01b0316611e0582611062565b6001600160a01b031614611e695760405162461bcd60e51b815260206004820152602560248201527f4552433732313a207472616e736665722066726f6d20696e636f72726563742060448201526437bbb732b960d91b6064820152608401610a38565b6001600160a01b038216611ecb5760405162461bcd60e51b8152602060048201526024808201527f4552433732313a207472616e7366657220746f20746865207a65726f206164646044820152637265737360e01b6064820152608401610a38565b611ed6600082611b5e565b6001600160a01b0383166000908152600360205260408120805460019290611eff9084906130c2565b90915550506001600160a01b0382166000908152600360205260408120805460019290611f2d908490612dae565b909155505060008181526002602052604080822080546001600160a01b0319166001600160a01b0386811691821790925591518493918716917fddf252ad1be2c89b69c2b068fc378daa952ba7f163c4a11628f55a4df523b3ef91a4505050565b6000611f9982611062565b9050611fa6600083611b5e565b6001600160a01b0381166000908152600360205260408120805460019290611fcf9084906130c2565b909155505060008281526002602052604080822080546001600160a01b0319169055518391906001600160a01b038416907fddf252ad1be2c89b69c2b068fc378daa952ba7f163c4a11628f55a4df523b3ef908390a45050565b604080516001600160a01b038416602482015260448082018490528251808303909101815260649091019091526020810180516001600160e01b031663a9059cbb60e01b179052610bfc908490612377565b600680546001600160a01b038381166001600160a01b0319831681179093556040519116919082907f8be0079c531659141344cd1fd0a4f28419497f9722a3daafe3b4186f6b6457e090600090a35050565b6000826120da8584612449565b14949350505050565b600260075414156121365760405162461bcd60e51b815260206004820152601f60248201527f5265656e7472616e637947756172643a207265656e7472616e742063616c6c006044820152606401610a38565b6002600755612149601980546001019055565b600061215460195490565b905061216033826124bd565b506001600755565b816001600160a01b0316836001600160a01b031614156121ca5760405162461bcd60e51b815260206004820152601960248201527f4552433732313a20617070726f766520746f2063616c6c6572000000000000006044820152606401610a38565b6001600160a01b03838116600081815260056020908152604080832094871680845294825291829020805460ff191686151590811790915591519182527f17307eab39ab6107e8899845ad3d59bd9653f200f220920489ca2b5937696c31910160405180910390a3505050565b612242848484611df2565b61224e848484846124d7565b6117615760405162461bcd60e51b8152600401610a38906130d9565b60606012805461094090612d17565b60608161229d5750506040805180820190915260018152600360fc1b602082015290565b8160005b81156122c757806122b181612f9c565b91506122c09050600a836130ae565b91506122a1565b60008167ffffffffffffffff8111156122e2576122e2612afa565b6040519080825280601f01601f19166020018201604052801561230c576020820181803683370190505b5090505b8415611a81576123216001836130c2565b915061232e600a8661312b565b612339906030612dae565b60f81b81838151811061234e5761234e612eb0565b60200101906001600160f81b031916908160001a905350612370600a866130ae565b9450612310565b60006123cc826040518060400160405280602081526020017f5361666545524332303a206c6f772d6c6576656c2063616c6c206661696c6564815250856001600160a01b03166125e49092919063ffffffff16565b805190915015610bfc57808060200190518101906123ea919061313f565b610bfc5760405162461bcd60e51b815260206004820152602a60248201527f5361666545524332303a204552433230206f7065726174696f6e20646964206e6044820152691bdd081cdd58d8d9595960b21b6064820152608401610a38565b600081815b84518110156124b557600085828151811061246b5761246b612eb0565b6020026020010151905080831161249157600083815260208290526040902092506124a2565b600081815260208490526040902092505b50806124ad81612f9c565b91505061244e565b509392505050565b61105e8282604051806020016040528060008152506125f3565b60006001600160a01b0384163b156125d957604051630a85bd0160e11b81526001600160a01b0385169063150b7a029061251b90339089908890889060040161315c565b602060405180830381600087803b15801561253557600080fd5b505af1925050508015612565575060408051601f3d908101601f1916820190925261256291810190613199565b60015b6125bf573d808015612593576040519150601f19603f3d011682016040523d82523d6000602084013e612598565b606091505b5080516125b75760405162461bcd60e51b8152600401610a38906130d9565b805181602001fd5b6001600160e01b031916630a85bd0160e11b149050611a81565b506001949350505050565b6060611a818484600085612626565b6125fd8383612757565b61260a60008484846124d7565b610bfc5760405162461bcd60e51b8152600401610a38906130d9565b6060824710156126875760405162461bcd60e51b815260206004820152602660248201527f416464726573733a20696e73756666696369656e742062616c616e636520666f6044820152651c8818d85b1b60d21b6064820152608401610a38565b6001600160a01b0385163b6126de5760405162461bcd60e51b815260206004820152601d60248201527f416464726573733a2063616c6c20746f206e6f6e2d636f6e74726163740000006044820152606401610a38565b600080866001600160a01b031685876040516126fa91906131b6565b60006040518083038185875af1925050503d8060008114612737576040519150601f19603f3d011682016040523d82523d6000602084013e61273c565b606091505b509150915061274c828286612899565b979650505050505050565b6001600160a01b0382166127ad5760405162461bcd60e51b815260206004820181905260248201527f4552433732313a206d696e7420746f20746865207a65726f20616464726573736044820152606401610a38565b6000818152600260205260409020546001600160a01b0316156128125760405162461bcd60e51b815260206004820152601c60248201527f4552433732313a20746f6b656e20616c7265616479206d696e746564000000006044820152606401610a38565b6001600160a01b038216600090815260036020526040812080546001929061283b908490612dae565b909155505060008181526002602052604080822080546001600160a01b0319166001600160a01b03861690811790915590518392907fddf252ad1be2c89b69c2b068fc378daa952ba7f163c4a11628f55a4df523b3ef908290a45050565b606083156128a857508161192a565b8251156128b85782518084602001fd5b8160405162461bcd60e51b8152600401610a3891906129f6565b8280546128de90612d17565b90600052602060002090601f0160209004810192826129005760008555612946565b82601f1061291957805160ff1916838001178555612946565b82800160010185558215612946579182015b8281111561294657825182559160200191906001019061292b565b50612952929150612956565b5090565b5b808211156129525760008155600101612957565b6001600160e01b031981168114610e3657600080fd5b60006020828403121561299357600080fd5b813561192a8161296b565b60005b838110156129b95781810151838201526020016129a1565b838111156117615750506000910152565b600081518084526129e281602086016020860161299e565b601f01601f19169290920160200192915050565b60208152600061192a60208301846129ca565b600060208284031215612a1b57600080fd5b5035919050565b6001600160a01b0381168114610e3657600080fd5b60008060408385031215612a4a57600080fd5b8235612a5581612a22565b946020939093013593505050565b600060208284031215612a7557600080fd5b813561192a81612a22565b600080600060608486031215612a9557600080fd5b8335612aa081612a22565b92506020840135612ab081612a22565b929592945050506040919091013590565b60008060408385031215612ad457600080fd5b8235612adf81612a22565b91506020830135612aef81612a22565b809150509250929050565b634e487b7160e01b600052604160045260246000fd5b600067ffffffffffffffff80841115612b2b57612b2b612afa565b604051601f8501601f19908116603f01168101908282118183101715612b5357612b53612afa565b81604052809350858152868686011115612b6c57600080fd5b858560208301376000602087830101525050509392505050565b600060208284031215612b9857600080fd5b813567ffffffffffffffff811115612baf57600080fd5b8201601f81018413612bc057600080fd5b611a8184823560208401612b10565b60008060008060608587031215612be557600080fd5b8435612bf081612a22565b935060208501359250604085013567ffffffffffffffff80821115612c1457600080fd5b818701915087601f830112612c2857600080fd5b813581811115612c3757600080fd5b8860208260051b8501011115612c4c57600080fd5b95989497505060200194505050565b8015158114610e3657600080fd5b60008060408385031215612c7c57600080fd5b8235612c8781612a22565b91506020830135612aef81612c5b565b60008060008060808587031215612cad57600080fd5b8435612cb881612a22565b93506020850135612cc881612a22565b925060408501359150606085013567ffffffffffffffff811115612ceb57600080fd5b8501601f81018713612cfc57600080fd5b612d0b87823560208401612b10565b91505092959194509250565b600181811c90821680612d2b57607f821691505b60208210811415612d4c57634e487b7160e01b600052602260045260246000fd5b50919050565b60208082526026908201527f5061796d656e7453706c69747465723a206163636f756e7420686173206e6f2060408201526573686172657360d01b606082015260800190565b634e487b7160e01b600052601160045260246000fd5b60008219821115612dc157612dc1612d98565b500190565b6020808252602b908201527f5061796d656e7453706c69747465723a206163636f756e74206973206e6f742060408201526a191d59481c185e5b595b9d60aa1b606082015260800190565b6020808252818101527f4f776e61626c653a2063616c6c6572206973206e6f7420746865206f776e6572604082015260600190565b60208082526031908201527f4552433732313a207472616e736665722063616c6c6572206973206e6f74206f6040820152701ddb995c881b9bdc88185c1c1c9bdd9959607a1b606082015260800190565b600060208284031215612ea957600080fd5b5051919050565b634e487b7160e01b600052603260045260246000fd5b6020808252601290820152712737ba1030b63637bbb2b21037b934b3b4b760711b604082015260600190565b60208082526029908201527f43727970746f57697a733a20596f752063616e2774206d696e7420736f206d75604082015268636820746f6b656e7360b81b606082015260800190565b6000816000190483118215151615612f5557612f55612d98565b500290565b60208082526022908201527f43727970746f57697a733a204e6f7420656e6f756768206574686572732073656040820152611b9d60f21b606082015260800190565b6000600019821415612fb057612fb0612d98565b5060010190565b600084516020612fca8285838a0161299e565b855191840191612fdd8184848a0161299e565b8554920191600090600181811c9080831680612ffa57607f831692505b85831081141561301857634e487b7160e01b85526022600452602485fd5b80801561302c576001811461303d5761306a565b60ff1985168852838801955061306a565b60008b81526020902060005b858110156130625781548a820152908401908801613049565b505083880195505b50939b9a5050505050505050505050565b60006020828403121561308d57600080fd5b815161192a81612a22565b634e487b7160e01b600052601260045260246000fd5b6000826130bd576130bd613098565b500490565b6000828210156130d4576130d4612d98565b500390565b60208082526032908201527f4552433732313a207472616e7366657220746f206e6f6e20455243373231526560408201527131b2b4bb32b91034b6b83632b6b2b73a32b960711b606082015260800190565b60008261313a5761313a613098565b500690565b60006020828403121561315157600080fd5b815161192a81612c5b565b6001600160a01b038581168252841660208201526040810183905260806060820181905260009061318f908301846129ca565b9695505050505050565b6000602082840312156131ab57600080fd5b815161192a8161296b565b600082516131c881846020870161299e565b919091019291505056fea2646970667358221220bcec4937ce609cc0c1ff2fe692feca2672bca53a981835631a2261d37565870f64736f6c63430008090033697066733a2f2f516d5a4546627679586a6152386a69516479654377707143537a3161566e587335514468586d686b7a413655797a2f68696464656e2e6a736f6e",
  "linkReferences": {},
  "deployedLinkReferences": {}
}